:0400000007EF00F016
:0A0008005F8252ED23F009EF22F0B1
:1008000000446174653A203025782D0054696D6587
:100810003A203025643A00446174653A2025782DE9
:100820000054696D653A2025643A0053746172740E
:10083000313A20005374617274323A200046696E76
:100840006973683A20003025642000257820000074
:1008500081A82DEF04F02FEF04F0C2EF04F004BEE6
:100860003AEF04F0045008E10304D8A03AEF04F092
:100870003CEF04F0C2EF04F00D0E056EFC0EE82E06
:10088000FED7052EFCD781B848EF04F04AEF04F0FC
:1008900043EF04F001C005F002C006F0D890053621
:1008A0000636D89005360636D89005360636BF0E81
:1008B0000524076E000E0620086E03500724D96E2B
:1008C00004500820DA6E2F0EDF6469EF04F06BEF3E
:1008D00004F0C2EF04F001C005F002C006F0D890A9
:1008E00005360636D89005360636D89005360636D3
:1008F000BF0E0524076E000E0620086E0350072465
:10090000D96E04500820DA6E390EDF608AEF04F0E9
:100910008CEF04F0C2EF04F001C005F002C006F055
:10092000D89005360636D89005360636D890053666
:100930000636BF0E0524076E000E0620086E035013
:100940000724D96E04500820DA6E01C009F002C0F5
:100950000AF0D89009360A36D89009360A36D89067
:1009600009360A36BF0E09240B6E000E0A200C6EE3
:1009700003500B24E16E04500C20E26EE7500D6E24
:100980000D28DF6E81AAC7EF04F0C9EF04F05CEF19
:1009900005F004BED4EF04F0045008E10304D8A02D
:1009A000D4EF04F0D6EF04F05CEF05F00D0E056E09
:1009B000FC0EE82EFED7052EFCD781BAE2EF04F03C
:1009C000E4EF04F0DDEF04F001C005F002C006F032
:1009D000D89005360636D89005360636D8900536B6
:1009E0000636BF0E0524076E000E0620086E035063
:1009F0000724D96E04500820DA6E300EDF6403EF4E
:100A000005F005EF05F05CEF05F001C005F002C050
:100A100006F0D89005360636D89005360636D890BA
:100A200005360636BF0E0524076E000E0620086E3A
:100A300003500724D96E04500820DA6E3A0EDF60A6
:100A400024EF05F026EF05F05CEF05F001C005F09E
:100A500002C006F0D89005360636D8900536063620
:100A6000D89005360636BF0E0524076E000E062008
:100A7000086E03500724D96E04500820DA6E01C0B6
:100A800009F002C00AF0D89009360A36D890093623
:100A90000A36D89009360A36BF0E09240B6E000EAE
:100AA0000A200C6E03500B24E16E04500C20E26E01
:100AB000E7500D6E0D04DF6E01C005F002C006F0B8
:100AC000D89005360636D89005360636D8900536C5
:100AD0000636C00E0524D96E000E0620DA6E320EE0
:100AE000DF6475EF05F077EF05F08CEF05F001C0DE
:100AF00005F002C006F0D89005360636D8900536C7
:100B00000636D89005360636C00E0524D96E000E7E
:100B10000620DA6E320EDF6E01C005F002C006F06C
:100B2000D89005360636D89005360636D890053664
:100B30000636C00E0524D96E000E0620DA6E320E7F
:100B4000DE18D8A4A6EF05F0A8EF05F0D8EF05F061
:100B500001C005F002C006F0D89005360636D890E0
:100B600005360636D89005360636C10E0524D96EF0
:100B7000000E0620DA6E330EDF64C1EF05F0C3EF1E
:100B800005F0D8EF05F001C005F002C006F0D890DE
:100B900005360636D89005360636D8900536063620
:100BA000C10E0524D96E000E0620DA6E330EDF6EFC
:100BB00001C005F002C006F0D89005360636D89080
:100BC00005360636D89005360636C00E0524D96E91
:100BD000000E0620DA6E300EDE18D8A4F2EF05F013
:100BE000F4EF05F024EF06F001C005F002C006F0B6
:100BF000D89005360636D89005360636D890053694
:100C00000636C10E0524D96E000E0620DA6E390EA6
:100C1000DF640DEF06F00FEF06F024EF06F001C0E1
:100C200005F002C006F0D89005360636D890053695
:100C30000636D89005360636C10E0524D96E000E4C
:100C40000620DA6E390EDF6E01C005F002C006F034
:100C5000D89005360636D89005360636D890053633
:100C60000636C30E0524D96E000E0620DA6E350E48
:100C7000DF643DEF06F03FEF06F054EF06F001C0F1
:100C800005F002C006F0D89005360636D890053635
:100C90000636D89005360636C30E0524D96E000EEA
:100CA0000620DA6E350EDF6E01C005F002C006F0D8
:100CB000D89005360636D89005360636D8900536D3
:100CC0000636C40E0524D96E000E0620DA6E390EE3
:100CD000DF646DEF06F06FEF06F084EF06F001C001
:100CE00005F002C006F0D89005360636D8900536D5
:100CF0000636D89005360636C40E0524D96E000E89
:100D00000620DA6E390EDF6E01C005F002C006F073
:100D1000D89005360636D89005360636D890053672
:100D20000636C60E0524D96E000E0620DA6E350E84
:100D3000DF649DEF06F09FEF06F0B4EF06F001C010
:100D400005F002C006F0D89005360636D890053674
:100D50000636D89005360636C60E0524D96E000E26
:100D60000620DA6E350EDF6E01C005F002C006F017
:100D7000D89005360636D89005360636D890053612
:100D80000636C70E0524D96E000E0620DA6E390E1F
:100D9000DF64CDEF06F0CFEF06F0E4EF06F001C020
:100DA00005F002C006F0D89005360636D890053614
:100DB0000636D89005360636C70E0524D96E000EC5
:100DC0000620DA6E390EDF6E12004450800B4D6E35
:100DD000445044244F6E43AEF0EF06F0F2EF06F0BD
:100DE000F3EF06F04F804F50D8B4F9EF06F0FBEF69
:100DF00006F010EF07F04F28D8A401EF07F003EF3B
:100E000007F00BEF07F0000E416E000E426E000E71
:100E1000436E000E446E438E000E446E18EF07F0D2
:100E2000000E416E000E426E000E436E000E446EC8
:100E30004850800B4E6E4D504E18D8B422EF07F03C
:100E400024EF07F025EF07F04D8C485048244E6EF4
:100E500047AE2DEF07F02FEF07F030EF07F04E8091
:100E60004E50D8B436EF07F038EF07F04DEF07F0EB
:100E70004E28D8A43EEF07F040EF07F048EF07F008
:100E8000000E456E000E466E000E476E000E486E58
:100E9000478E000E486E55EF07F0000E456E000EAF
:100EA000466E000E476E000E486E4F504E5CD8B036
:100EB0005CEF07F05EEF07F085EF07F04DAC63EFF6
:100EC00007F065EF07F067EF07F0800E4D1A4FC08F
:100ED00050F04EC04FF050C04EF041C050F045C0F1
:100EE00041F050C045F042C050F046C042F050C002
:100EF00046F043C050F047C043F050C047F044C0F4
:100F000050F048C044F050C048F0000E506E4F50B2
:100F10004EC049F04A6A495E000E4A5A4ABE9AEFEC
:100F200007F04A5009E11A0E495CD8A09AEF07F081
:100F30009CEF07F0D3EF07F04150421043104410EC
:100F4000D8A4A5EF07F0A8EF07F0010EA9EF07F06E
:100F5000000E506E000E416E000E426E000E436E8B
:100F6000000E446E4EC04FF0DCEF07F050A0BBEF18
:100F700007F0BDEF07F0C3EF07F0D890503001093C
:100F8000506EC5EF07F0D890503241A0CAEF07F07D
:100F9000CCEF07F0CDEF07F0508E443444324332AB
:100FA000423241324F2A4E504F5CD8A0DAEF07F060
:100FB000DCEF07F0B6EF07F04DBCE1EF07F0E3EF31
:100FC00007F023EF08F04F50D8A4E9EF07F0EBEF5C
:100FD00007F0F5EF07F0000E416E000E426E000EB6
:100FE000436E000E446E44EF09F0455041264650D2
:100FF0004222475043224850442244A002EF08F0C6
:1010000004EF08F0B0EF08F050A009EF08F00BEF84
:1010100008F011EF08F0D89050300109506E13EF2E
:1010200008F0D890503241A018EF08F01AEF08F0FD
:101030001BEF08F0508E4434443243324232413286
:101040004F2AB0EF08F04550415C46504258475097
:1010500043584450800A496E4850800A4958D8B0D5
:1010600034EF08F036EF08F061EF08F04150455CCE
:10107000496E425046584A6E435047584B6E445052
:1010800048584C6EFF0E4924416EFF0E4A20426EB6
:10109000FF0E4B20436EFF0E4C20446E800E4D1A07
:1010A000506C5050D8A457EF08F059EF08F069EF92
:1010B00008F0010E4126000E42224322442269EF2D
:1010C00008F04550415E4650425A4750435A4850F6
:1010D000445A4150421043104410D8A472EF08F013
:1010E00074EF08F0A9EF08F05050D8A47AEF08F098
:1010F0007CEF08F0A9EF08F0000E416E000E426E82
:10110000000E436E000E446E44EF09F0D890413655
:1011100042364336443650AE90EF08F092EF08F076
:1011200093EF08F0418050A098EF08F09AEF08F094
:101130009EEF08F0D8805036A0EF08F0D8905036D7
:101140004F50D8B4A6EF08F0A8EF08F0A9EF08F0C8
:101150004F0643AEAEEF08F0B0EF08F086EF08F0B0
:10116000000E4E6E50AEB7EF08F0B9EF08F0D1EFB9
:1011700008F050C049F07F0E4916D8B4C2EF08F00D
:10118000C4EF08F0C8EF08F0010E4E6ED1EF08F082
:1011900041A0CDEF08F0CFEF08F0D1EF08F0C4EF99
:1011A00008F04E50D8B4D7EF08F0D9EF08F004EFAC
:1011B00009F0010E4126000E42224322442244A09F
:1011C000E4EF08F0E6EF08F004EF09F041C049F061
:1011D00042C04AF043C04BF044C04CF04C344C3257
:1011E0004B324A32493249C041F04AC042F04BC00A
:1011F00043F04CC044F04F28D8B401EF09F003EF9E
:1012000009F004EF09F04F2A4F28D8B40AEF09F08B
:101210000CEF09F014EF09F04F50D8A412EF09F0C9
:1012200014EF09F026EF09F0000E416E000E426E39
:10123000000E436E000E446E4F50D8A422EF09F00A
:1012400024EF09F026EF09F0000E4D6E4FA02BEFB2
:1012500009F02DEF09F030EF09F0438E31EF09F07E
:10126000439ED8904F30446E4DAE39EF09F03BEFBE
:1012700009F03CEF09F0448E41C041F042C042F019
:1012800043C043F044C044F01200010E0001F86F67
:10129000A4EC23F0939C939E93EC23F06BEC23F04F
:1012A000800E516E250E526E000E536E000E546E5F
:1012B00055EC1DF0A9EC23F00A0E096E020E0A6E21
:1012C0001E0E47EC1EF0030E096E010E0A6E170E7D
:1012D0000B6E030EC6EC1BF0000E0001F36FF35112
:1012E0009CEC23F0FF0AD8A478EF09F07AEF09F01C
:1012F00080EF09F0300E016E0001F351CCEC22F0CA
:101300000001F32B1F0EF36588EF09F08AEF09F057
:101310006FEF09F0000EF46F000EF66F020EF61973
:10132000D8B495EF09F097EF09F016EF0AF0050E23
:10133000F619D8A49EEF09F0A0EF09F0F9EF09F033
:1013400016EF0AF0F451080DC00EF3245C6E000E87
:10135000F4205D6EF6515C24D96E000E5D20DA6ECD
:10136000F451F6259CEC23F0DF6E16EF0AF0F451F1
:10137000080DC00EF3245C6E000EF4205D6EF65175
:101380005C24D96E000E5D20DA6EF451F625070F4D
:101390009CEC23F0DF6E16EF0AF0F451080DC00E3E
:1013A000F3245C6E000EF4205D6EF6515C24D96E61
:1013B000000E5D20DA6EF451F6250E0F9CEC23F042
:1013C000DF6E16EF0AF0F451080DC00EF3245C6EC8
:1013D000000EF4205D6EF6515C24D96E000E5D2087
:1013E000DA6EF451F625150F9CEC23F0DF6E16EF44
:1013F0000AF0F4515C6E5D6A5D50000AD8B403EFE8
:101400000AF016EF0AF05C50000AD8B4A2EF09F017
:10141000010AD8B4B7EF09F0030AD8B4CDEF09F048
:10142000010AD8B4E3EF09F016EF0AF00001F62B39
:10143000070EF6651EEF0AF020EF0AF08EEF09F0B6
:10144000F42B030EF46527EF0AF029EF0AF08CEF76
:1014500009F000019C51D8B430EF0AF032EF0AF0E5
:1014600067EF0AF048EF0AF0818C010E9E6F65EF7E
:101470000AF0819C000E9E6F65EF0AF0818E010ECE
:101480009D6F65EF0AF0819E000E9D6F65EF0AF07B
:101490009C515C6E5D6A5D50000AD8B452EF0AF050
:1014A00065EF0AF05C50410AD8B434EF0AF0030A41
:1014B000D8B439EF0AF0010AD8B43EEF0AF0070AAF
:1014C000D8B443EF0AF065EF0AF0000E9C6F81A4D8
:1014D0006CEF0AF06EEF0AF098EF0AF00D0E5C6EFA
:1014E000FC0EE82EFED75C2EFCD781B47AEF0AF012
:1014F0007CEF0AF075EF0AF05FEC23F00001F82BA7
:10150000030EF86586EF0AF088EF0AF098EF0AF00C
:10151000010EF86F98EF0AF0B0EC14F0B1EF0AF09A
:101520009FEC0FF0B1EF0AF09AEC0DF0B1EF0AF07A
:10153000F8515C6E5D6A5D50000AD8B4A2EF0AF003
:101540008CEF0AF05C50010AD8B48CEF0AF0030A61
:10155000D8B490EF0AF0010AD8B494EF0AF08CEFF7
:101560000AF0000E0001F56F000EF76F020EF7197A
:10157000D8B4BDEF0AF0BFEF0AF042EF0BF0050E52
:10158000F719D8A4C6EF0AF0C8EF0AF025EF0BF060
:1015900042EF0BF0F551080DC00EF3245C6E000E07
:1015A000F4205D6EF7515C24D96E000E5D20DA6E7A
:1015B000DF50016EF551F725CCEC22F042EF0BF035
:1015C000F551080DC00EF3245C6E000EF4205D6E24
:1015D000F7515C24D96E000E5D20DA6EDF50016E8B
:1015E000F551F725070FCCEC22F042EF0BF0F55147
:1015F000080DC00EF3245C6E000EF4205D6EF751F2
:101600005C24D96E000E5D20DA6EDF50016EF5515C
:10161000F7250E0FCCEC22F042EF0BF0F551080D40
:10162000C00EF3245C6E000EF4205D6EF7515C2456
:10163000D96E000E5D20DA6EDF50016EF551F72590
:10164000150FCCEC22F042EF0BF0F5515C6E5D6AA9
:101650005D50000AD8B42FEF0BF042EF0BF05C5056
:10166000000AD8B4CAEF0AF0010AD8B4E0EF0AF0D1
:10167000030AD8B4F7EF0AF0010AD8B40EEF0BF062
:1016800042EF0BF00001F72B070EF7654AEF0BF066
:101690004CEF0BF0B6EF0AF0F52B030EF56553EFA8
:1016A0000BF055EF0BF0B4EF0AF0000E026E000ED7
:1016B000016E29EC1BF0000E026E010E016E29EC8A
:1016C0001BF0000E0E6E000E0D6E000E106E010E61
:1016D0000F6EDDEC15F0000E026E020E016E29ECAD
:1016E0001BF0000E026E030E016E29EC1BF0000EC3
:1016F0000E6E020E0D6E000E106E030E0F6EDDEC00
:1017000015F029EF0AF007EF00F01250800B1B6E66
:1017100012501224216E11AE90EF0BF092EF0BF0ED
:1017200093EF0BF021802150D8B499EF0BF09BEF91
:101730000BF0AEEF0BF02128D8A4A1EF0BF0A3EF34
:101740000BF0ABEF0BF0000E0F6E000E106E000EE4
:10175000116E000E126E118EB6EF0BF0000E0F6EB2
:10176000000E106E000E116E000E126E1650800BE1
:101770001B1A16501624206E15AEC1EF0BF0C3EFE6
:101780000BF0C4EF0BF020802050D8B4CAEF0BF060
:10179000CCEF0BF0DFEF0BF02028D8A4D2EF0BF04A
:1017A000D4EF0BF0DCEF0BF0000E136E000E146E96
:1017B000000E156E000E166E158EE7EF0BF0000E84
:1017C000136E000E146E000E156E000E166E205075
:1017D000D8B4EDEF0BF0EFEF0BF0F7EF0BF021507B
:1017E000D8A4F5EF0BF0F7EF0BF001EF0CF0000EC3
:1017F0000F6E000E106E000E116E000E126E99EF3D
:101800000DF015500F02F3CF26F0F4CF27F026503D
:101810001C6E1D6A1E6A1F6A2750226E236A246A84
:10182000256A14501002F3CF26F0F4CF27F026508B
:101830001C26000E1D221E221F2227502226000ECB
:1018400023222422252213501102F3CF26F0F4CFB5
:1018500027F026501C26000E1D221E221F22275074
:101860002226000E2322242225221EC01FF01DC086
:101870001EF01CC01DF01C6A13501002F3CF26F09E
:10188000F4CF27F026501C2627501D22000E1E22C2
:10189000000E1F2214500F02F3CF26F0F4CF27F0D2
:1018A00026501C2627501D22000E1E22000E1F222D
:1018B0001EC01FF01DC01EF01CC01DF01C6A13507E
:1018C0000F02F3CF26F0F4CF27F026501C26275026
:1018D0001D22000E1E22000E1F2215501002F3CFF3
:1018E00026F0F4CF27F02650222627502322000E80
:1018F0002422000E252214501102F3CF26F0F4CF3B
:1019000027F02650222627502322000E2422000EE4
:10191000252215501102F3CF26F0F4CF27F02650E0
:10192000176E2750186E196A1A6A19C01AF018C073
:1019300019F017C018F0176A1750222618502322E2
:10194000195024221A5025221CC017F01DC018F06F
:101950001EC019F01FC01AF0190EB4EF0CF0D89089
:101960001A32193218321732E82EAFEF0CF0175036
:10197000222618502322195024221A5025221EC034
:101980001FF01DC01EF01CC01DF01C6A205021C09D
:1019900017F0186A1726000E1822820E1724266EDA
:1019A000FF0E1820276EEAEF0CF0D890223623366F
:1019B000243625361FAEDFEF0CF0E1EF0CF0E2EF3E
:1019C0000CF02280D8901C361D361E361F36260697
:1019D000D8A0270624AEEFEF0CF0F1EF0CF0D5EF16
:1019E0000CF0000E206E1FAEF8EF0CF0FAEF0CF0CA
:1019F0001EEF0DF0FF0E1C14176EFF0E1D14186E57
:101A0000FF0E1E14196E7F0E1F141A6E1750181039
:101A100019101A10D8B40FEF0DF011EF0DF015EFEB
:101A20000DF0010E206E1EEF0DF022A01AEF0DF04A
:101A30001CEF0DF01EEF0DF011EF0DF02050D8B49B
:101A400024EF0DF026EF0DF04AEF0DF0010E2226E7
:101A5000000E23222422252225A031EF0DF033EFA2
:101A60000DF04AEF0DF022C017F023C018F024C08B
:101A700019F025C01AF01A341A32193218321732F6
:101A800017C022F018C023F019C024F01AC025F0A6
:101A9000264A272A27BE55EF0DF0275008E12628B1
:101AA000D8A055EF0DF057EF0DF061EF0DF0000EDF
:101AB000226E000E236E800E246E7F0E256E8FEF39
:101AC0000DF027BE6EEF0DF0275006E12604D8B0CA
:101AD0006CEF0DF06EEF0DF07AEF0DF0000E226E50
:101AE000000E236E000E246E000E256E000E1B6E7F
:101AF0008FEF0DF026C021F0FF0E2216FF0E2316E9
:101B00007F0E2416000E251621A089EF0DF08BEF15
:101B10000DF08CEF0DF0248ED8902130256E1B50E7
:101B2000251222C00FF023C010F024C011F025C0F0
:101B300012F01200000E036E000E026E000E056E13
:101B4000000E046EB3EC1EF0340E036E080E046E2D
:101B50003DEC20F0000E136E000E126ED00E12241B
:101B6000D96E000E1320DA6EDF502DEC22F0124AEF
:101B7000132A13BEC5EF0DF0135009E1080E125CD5
:101B8000D8A0C5EF0DF0C7EF0DF0AEEF0DF0000ED1
:101B9000036E010E026E000E056E000E046EB3ECB5
:101BA0001EF03D0E036E080E046E3DEC20F0000E9C
:101BB000156E000E146ED80E1424D96E000E15206A
:101BC000DA6EDF502DEC22F0144A152A15BEF2EF22
:101BD0000DF0155009E1080E145CD8A0F2EF0DF0DD
:101BE000F4EF0DF0DBEF0DF0820E106EDE0EE82E3E
:101BF000FED7102EFCD781A600EF0EF002EF0EF0FC
:101C000073EF0EF00D0E106EFC0EE82EFED7102EA8
:101C1000FCD781B60EEF0EF010EF0EF009EF0EF0CC
:101C2000000197BF1FEF0EF0975107E1090E965D77
:101C3000D8B01DEF0EF01FEF0EF023EF0EF0964B15
:101C4000972B25EF0EF0944B952B030E96199711B9
:101C5000D8A42DEF0EF02FEF0EF033EF0EF0000EA4
:101C6000976F040E966F060E96199711D8A43BEF46
:101C70000EF03DEF0EF041EF0EF0000E976F070EE5
:101C8000966F030E94199511D8A449EF0EF04BEFFF
:101C90000EF04FEF0EF0000E956F040E946F060ECF
:101CA00094199511D8A457EF0EF059EF0EF05DEF8F
:101CB0000EF0000E956F070E946F95BF69EF0EF052
:101CC000955109E1090E945DD8A069EF0EF06BEF14
:101CD0000EF073EF0EF0000E976F000E966F000E71
:101CE000956F000E946F000197BF7FEF0EF0975134
:101CF00008E19605D8A07FEF0EF081EF0EF09BEF84
:101D00000EF097BF8FEF0EF0975107E1090E965D29
:101D1000D8B08DEF0EF08FEF0EF09BEF0EF0000EAF
:101D2000026E020E016E96C003F097C004F028EC1C
:101D300004F00AEF0FF095BFA6EF0EF0955108E101
:101D40009405D8A0A6EF0EF0A8EF0EF00AEF0FF062
:101D500095BFB6EF0EF0955107E1090E945DD8B02E
:101D6000B4EF0EF0B6EF0EF00AEF0FF0000E026EB9
:101D7000030E016E94C003F095C004F028EC04F04B
:101D80000AEF0FF0000E0C6E010E0B6E96C00DF0F8
:101D900097C00EF05EEC21F078EF0FF0000E0C6EA5
:101DA000020E0B6E96C00DF097C00EF05EEC21F0A7
:101DB00078EF0FF0000E0C6E040E0B6E96C00DF057
:101DC00097C00EF05EEC21F078EF0FF0000E0C6E75
:101DD000050E0B6E96C00DF097C00EF05EEC21F074
:101DE00078EF0FF0000E0C6E070E0B6E96C00DF024
:101DF00097C00EF05EEC21F078EF0FF0000E0C6E45
:101E0000080E0B6E96C00DF097C00EF05EEC21F040
:101E100078EF0FF096C010F097C011F01150000A43
:101E2000D8B415EF0FF078EF0FF01050010AD8B4C6
:101E3000C2EF0EF0030AD8B4CEEF0EF0060AD8B403
:101E4000DAEF0EF0010AD8B4E6EF0EF0020AD8B4C9
:101E5000F2EF0EF00F0AD8B4FEEF0EF078EF0FF0AD
:101E6000000E0C6E010E0B6E96C00DF097C00EF0BA
:101E70005EEC21F09EEF0FF0000E0C6E020E0B6E6A
:101E800096C00DF097C00EF05EEC21F09EEF0FF0C3
:101E9000000E0C6E040E0B6E96C00DF097C00EF087
:101EA0005EEC21F09EEF0FF0000E0C6E050E0B6E37
:101EB00096C00DF097C00EF05EEC21F09EEF0FF093
:101EC000000E0C6E070E0B6E96C00DF097C00EF054
:101ED0005EEC21F09EEF0FF0000E0C6E080E0B6E04
:101EE00096C00DF097C00EF05EEC21F09EEF0FF063
:101EF00094C010F095C011F01150000AD8B483EFCF
:101F00000FF09EEF0FF01050010AD8B430EF0FF031
:101F1000030AD8B43CEF0FF0060AD8B448EF0FF02C
:101F2000010AD8B454EF0FF0020AD8B460EF0FF0F2
:101F30000F0AD8B46CEF0FF09EEF0FF01200000EF6
:101F4000036E000E026E000E056E000E046EB3EC02
:101F50001EF02B0E036E080E046E3DEC20F0000EFA
:101F6000136E000E126EC00E1224D96E000E1320D6
:101F7000DA6EDF502DEC22F0124A132A13BECAEF9C
:101F80000FF0135009E1080E125CD8A0CAEF0FF051
:101F9000CCEF0FF0B3EF0FF0000E036E010E026EE8
:101FA000000E056E000E046EB3EC1EF03D0E036EC7
:101FB000080E046E3DEC20F0000E156E000E146E3F
:101FC000C80E1424D96E000E1520DA6EDF502DECE9
:101FD00022F0144A152A15BEF7EF0FF0155009E14B
:101FE000080E145CD8A0F7EF0FF0F9EF0FF0E0EF58
:101FF0000FF0820E106EDE0EE82EFED7102EFCD7EC
:1020000081A605EF10F007EF10F078EF10F00D0E3D
:10201000106EFC0EE82EFED7102EFCD781B613EF03
:1020200010F015EF10F00EEF10F000019BBF24EF41
:1020300010F09B5107E1090E9A5DD8B022EF10F025
:1020400024EF10F028EF10F09A4B9B2B2AEF10F0A2
:10205000984B992B030E9A199B11D8A432EF10F0CC
:1020600034EF10F038EF10F0000E9B6F040E9A6FF3
:10207000060E9A199B11D8A440EF10F042EF10F011
:1020800046EF10F0000E9B6F070E9A6F030E981923
:102090009911D8A44EEF10F050EF10F054EF10F05B
:1020A000000E996F040E986F060E98199911D8A416
:1020B0005CEF10F05EEF10F062EF10F0000E996F21
:1020C000070E986F99BF6EEF10F0995109E1090E54
:1020D000985DD8A06EEF10F070EF10F078EF10F070
:1020E000000E9B6F000E9A6F000E996F000E986F96
:1020F00000019BBF84EF10F09B5108E19A05D8A026
:1021000084EF10F086EF10F0A0EF10F09BBF94EF7B
:1021100010F09B5107E1090E9A5DD8B092EF10F0D4
:1021200094EF10F0A0EF10F0000E026E000E016EA2
:102130009AC003F09BC004F028EC04F00FEF11F0FC
:1021400099BFABEF10F0995108E19805D8A0ABEF1B
:1021500010F0ADEF10F00FEF11F099BFBBEF10F0E2
:10216000995107E1090E985DD8B0B9EF10F0BBEFB7
:1021700010F00FEF11F0000E026E010E016E98C00C
:1021800003F099C004F028EC04F00FEF11F0000EFA
:102190000C6E010E0B6E9AC00DF09BC00EF05EEC43
:1021A00021F07DEF11F0000E0C6E020E0B6E9AC046
:1021B0000DF09BC00EF05EEC21F07DEF11F0000EF3
:1021C0000C6E040E0B6E9AC00DF09BC00EF05EEC10
:1021D00021F07DEF11F0000E0C6E050E0B6E9AC013
:1021E0000DF09BC00EF05EEC21F07DEF11F0000EC3
:1021F0000C6E070E0B6E9AC00DF09BC00EF05EECDD
:1022000021F07DEF11F0000E0C6E080E0B6E9AC0DF
:102210000DF09BC00EF05EEC21F07DEF11F09AC046
:1022200010F09BC011F01150000AD8B41AEF11F051
:102230007DEF11F01050010AD8B4C7EF10F0030A77
:10224000D8B4D3EF10F0060AD8B4DFEF10F0010ACB
:10225000D8B4EBEF10F0020AD8B4F7EF10F00F0A81
:10226000D8B403EF11F07DEF11F0000E0C6E010EEB
:102270000B6E9AC00DF09BC00EF05EEC21F0A3EF48
:1022800011F0000E0C6E020E0B6E9AC00DF09BC08A
:102290000EF05EEC21F0A3EF11F0000E0C6E040EB8
:1022A0000B6E9AC00DF09BC00EF05EEC21F0A3EF18
:1022B00011F0000E0C6E050E0B6E9AC00DF09BC057
:1022C0000EF05EEC21F0A3EF11F0000E0C6E070E85
:1022D0000B6E9AC00DF09BC00EF05EEC21F0A3EFE8
:1022E00011F0000E0C6E080E0B6E9AC00DF09BC024
:1022F0000EF05EEC21F0A3EF11F098C010F099C041
:1023000011F01150000AD8B488EF11F0A3EF11F0CA
:102310001050010AD8B435EF11F0030AD8B441EFD8
:1023200011F0060AD8B44DEF11F0010AD8B459EFF4
:1023300011F0020AD8B465EF11F00F0AD8B471EFAA
:1023400011F0A3EF11F012002B50800B386E2B50C0
:102350002B243F6E2AAEAFEF11F0B1EF11F0B2EFC8
:1023600011F03F803F50D8B4B8EF11F0BAEF11F040
:10237000CFEF11F03F28D8A4C0EF11F0C2EF11F059
:10238000CAEF11F0000E286E000E296E000E2A6EA4
:10239000000E2B6E2A8E000E2B6ED7EF11F0000E62
:1023A000286E000E296E000E2A6E000E2B6E2F5026
:1023B000800B381A2F502F24406E2EAEE2EF11F012
:1023C000E4EF11F0E5EF11F040804050D8B4EBEFAE
:1023D00011F0EDEF11F002EF12F04028D8A4F3EF66
:1023E00011F0F5EF11F0FDEF11F0000E2C6E000E64
:1023F0002D6E000E2E6E000E2F6E2E8E000E2F6E86
:102400000AEF12F0000E2C6E000E2D6E000E2E6ED6
:10241000000E2F6E2C502D102E102F10D8A413EF5D
:1024200012F015EF12F02DEF12F0000E286E000ED4
:10243000296E000E2A6E000E2B6E800E2A127F0E61
:102440002B1238502B1228C028F029C029F02AC09E
:102450002AF02BC02BF070EF13F03F50D8A433EFCD
:1024600012F035EF12F03FEF12F0000E286E000E62
:10247000296E000E2A6E000E2B6E70EF13F0405086
:102480003FC030F0316A305E000E315A7F0E30248A
:10249000396E000E31203A6E28C034F029C035F074
:1024A0002AC036F02BC037F0000E286E000E296EC1
:1024B000000E2A6E000E2B6E000E3B6E000E3C6E60
:1024C000000E3D6E000E3E6E000E406EA0EF12F04C
:1024D0004050D8B46EEF12F070EF12F087EF12F0A8
:1024E000D8903436353636363736D89028362936B1
:1024F0002A362B363EAE7FEF12F081EF12F082EFDC
:1025000012F02880D8903B363C363D363E362C5073
:10251000345C2D5035582E5036582F503758D8A08F
:1025200094EF12F096EF12F09FEF12F03E8C2C50C9
:10253000345E2D50355A2E50365A2F50375A402A75
:10254000190E4064A6EF12F0A8EF12F068EF12F037
:102550003450351036103710D8B4B1EF12F0B3EF55
:1025600012F0CBEF12F03B80CBEF12F0D890283670
:1025700029362A362B363EAEC0EF12F0C2EF12F0EB
:10258000C3EF12F02880D8903B363C363D363E36BD
:102590003906D8A03A062AAED0EF12F0D2EF12F0E8
:1025A000B6EF12F0000E406E3EAED9EF12F0DBEF48
:1025B00012F0FFEF12F0FF0E3B14306EFF0E3C14D2
:1025C000316EFF0E3D14326E7F0E3E14336E30506E
:1025D000311032103310D8B4F0EF12F0F2EF12F0E5
:1025E000F6EF12F0010E406EFFEF12F028A0FBEFA5
:1025F00012F0FDEF12F0FFEF12F0F2EF12F0405088
:10260000D8B405EF13F007EF13F02BEF13F0010E22
:102610002826000E29222A222B222BA012EF13F0AB
:1026200014EF13F02BEF13F028C030F029C031F075
:102630002AC032F02BC033F03334333232323132ED
:10264000303230C028F031C029F032C02AF033C017
:102650002BF0394A3A2A3ABE36EF13F03A5008E1E5
:102660003928D8A036EF13F038EF13F043EF13F00A
:10267000000E3A6E3968000E286E000E296E000EAC
:102680002A6E000E2B6E3ABE50EF13F03A5006E160
:102690003904D8B04EEF13F050EF13F05EEF13F0A3
:1026A000000E3A6E000E396E000E286E000E296E76
:1026B000000E2A6E000E2B6E000E386E39C03FF0F1
:1026C0003FA065EF13F067EF13F06AEF13F02A8E67
:1026D0006BEF13F02A9ED8903F302B6E21EF12F053
:1026E00012001EC034F01FC035F020C036F021C0EB
:1026F00037F022C038F023C039F024C03AF025C0AA
:102700003BF03BBE86EF13F089EF13F0010E8AEF2A
:1027100013F0000E3E6E3E50D8B491EF13F093EFDD
:1027200013F0A3EF13F03B1E3A1E391E381E371E5E
:10273000361E351E346C000E3522362237223822E2
:1027400039223A223B22000193BFB1EF13F093519B
:1027500006E19205D8B0AFEF13F0B1EF13F0B7EF89
:1027600013F0000E316E010E306EBBEF13F092C00D
:1027700030F093C031F090C032F091C033F03E5051
:10278000D8B4C5EF13F0C7EF13F0DEEF13F0320645
:10279000D8A033063E50D8A4D0EF13F0D2EF13F0F8
:1027A000D8EF13F0000E2F6E2B0E2E6EDCEF13F011
:1027B000000E2F6E2D0E2E6E2EC03EF0000E3D6EC2
:1027C0001F0E3C6E000E01011F6F63EF14F03C06FC
:1027D000D8A03D06000E3C24D96E010E3D20DA6ED5
:1027E00034C001F035C002F036C003F037C004F049
:1027F00038C005F039C006F03AC007F03BC008F019
:102800000A0E096E000E0A6E000E0B6E000E0C6EA4
:10281000000E0D6E000E0E6E000E0F6E000E106E8E
:1028200077EC1AF001C026F002C027F003C028F0B0
:1028300004C029F005C02AF006C02BF007C02CF018
:1028400008C02DF026C013F027C014F072EC22F05F
:102850001350300FDF6E3006D8A031063206D8A0F4
:10286000330634C001F035C002F036C003F037C083
:1028700004F038C005F039C006F03AC007F03BC09C
:1028800008F00A0E096E000E0A6E000E0B6E000EA6
:102890000C6E000E0D6E000E0E6E000E0F6E000E12
:1028A000106EB3EC19F001C034F002C035F003C073
:1028B00036F004C037F005C038F006C039F007C064
:1028C0003AF008C03BF03DBE6EEF14F03D5008E119
:1028D0003C04D8A06EEF14F070EF14F08CEF14F0FD
:1028E0003450351036103710381039103A103B106C
:1028F000D8A47DEF14F07FEF14F0E7EF13F031BEB2
:102900008CEF14F0315006E13004D8B08AEF14F0A7
:102910008CEF14F0E7EF13F03E50D8B492EF14F0C0
:1029200094EF14F09FEF14F03C06D8A03D06000E83
:102930003C24D96E010E3D20DA6E3EC0DFFF1CC084
:1029400011F01DC012F0000E3C24136E010E3D204C
:10295000146E32C015F033C016F07CEC20F012007B
:10296000B30E046E000E056EBAEC21F0B30E046EC9
:10297000000E056E2AEC21F0B3C05BF00F0E5B1663
:102980000001B3390F0B0F0B0A0DF3505B24B36F2B
:10299000B4C05BF00F0E5B16B4390F0B0F0B0A0DB2
:1029A000F3505B24B46FB5C05BF00F0E5B16B53906
:1029B0000F0B0F0B0A0DF3505B24B56F0A0EB361BA
:1029C000E4EF14F0E6EF14F0F5EF14F0A90EE06F69
:1029D000000EE16F460EE26F080EE36FB3C0E4F045
:1029E000E56B91EC21F002EF15F0A90EE06F000EFF
:1029F000E16F470EE26F080EE36FB3C0E4F0E56BE2
:102A000091EC21F00A0E0001B46109EF15F00BEF13
:102A100015F01AEF15F09F0EE06F000EE16F120E29
:102A2000E26F080EE36FB4C0E4F0E56B91EC21F0C7
:102A300027EF15F09F0EE06F000EE16F270EE26F9B
:102A4000080EE36FB4C0E4F0E56B91EC21F00A0EE0
:102A50000001B5612EEF15F030EF15F03FEF15F0E6
:102A60003E0EE06F010EE16F0C0EE26F080EE36F99
:102A7000B5C0E4F0E56B91EC21F04CEF15F03E0EA3
:102A8000E06F010EE16F210EE26F080EE36FB5C03B
:102A9000E4F0E56B91EC21F0000E036E000E026E87
:102AA000000E056E000E046EB3EC1EF03E0E036EBB
:102AB000010E046E3DEC20F09F0E036E000E046EBE
:102AC0003DEC20F0A90E036E000E046E3DEC20F0EC
:102AD0000A0E0001B7616FEF15F071EF15F080EF8E
:102AE00015F0340EE06F010EE16F010EE26F080E7B
:102AF000E36FB7C0E4F0E56B91EC21F08DEF15F0DA
:102B0000340EE06F010EE16F170EE26F080EE36FF7
:102B1000B7C0E4F0E56B91EC21F00A0E0001B8615A
:102B200094EF15F096EF15F0A5EF15F02A0EE06F73
:102B3000010EE16F070EE26F080EE36FB8C0E4F01C
:102B4000E56B91EC21F0B2EF15F02A0EE06F010E6B
:102B5000E16F1D0EE26F080EE36FB8C0E4F0E56BA5
:102B600091EC21F0200E0001E06F010EE16F4B0EA1
:102B7000E26F080EE36FB9C0E4F0E56B91EC21F071
:102B8000000E036E010E026E000E056E000E046E46
:102B9000B3EC1EF0340E036E010E046E3DEC20F01B
:102BA0002A0E036E010E046E3DEC20F0200E036E23
:102BB000010E046E3DEC20F012000001B551016ED3
:102BC000026A036A046A100E056E0E0E066E000E8F
:102BD000076E000E086EF5EC20F001C011F002C087
:102BE00012F003C013F004C014F00001B451016EE0
:102BF000026A036A046A3C0E056E000E066E000E41
:102C0000076E000E086EF5EC20F001501124156ED1
:102C100002501220166E03501320176E0450142019
:102C2000186E0001B3511524846F000E1620856FB5
:102C3000000E1720866F000E1820876FBA0E0D2425
:102C4000D96E000E0E20DA6EDF50116E1150016E3B
:102C5000026A036A046A100E056E0E0E066E000EFE
:102C6000076E000E086EF5EC20F001C012F002C0F5
:102C700013F003C014F004C015F08C0E0D24D96EAF
:102C8000000E0E20DA6EDF50166E1650016E026ACC
:102C9000036A046A3C0E056E000E066E000E076E97
:102CA000000E086EF5EC20F001501224176E025051
:102CB0001320186E03501420196E045015201A6E3C
:102CC000880E0D24D96E000E0E20DA6EDF501B6EBA
:102CD0001B5017241C6E000E18201D6E000E1920AC
:102CE0001E6E000E1A201F6E700E206E000E216EDA
:102CF000D8900D34D96E0E34DA6ED890D936DA36D3
:102D00002050D9262150DA221CC0DEFF1DC0DEFF74
:102D10001EC0DEFF1FC0DEFFBA0E0F24D96E000EEC
:102D20001020DA6EDF50116E1150016E026A036AD4
:102D3000046A100E056E0E0E066E000E076E000E73
:102D4000086EF5EC20F001C012F002C013F003C0D1
:102D500014F004C015F08C0E0F24D96E000E102054
:102D6000DA6EDF50166E1650016E026A036A046A4C
:102D70003C0E056E000E066E000E076E000E086E0D
:102D8000F5EC20F001501224176E02501320186E3B
:102D900003501420196E045015201A6E880E0F244B
:102DA000D96E000E1020DA6EDF501B6E1B501724F8
:102DB0001C6E000E18201D6E000E19201E6E000ED7
:102DC0001A201F6E600E206E000E216ED8900D34FA
:102DD000D96E0E34DA6ED890D936DA362050D9262C
:102DE0002150DA221CC0DEFF1DC0DEFF1EC0DEFF48
:102DF0001FC0DEFFCFEC1DF0120041C0D9FF42C062
:102E0000DAFFDECFF6FFDDCFF7FF0800F550250A29
:102E1000D8A40DEF17F00FEF17F0F9EF17F041C03E
:102E2000D9FF42C0DAFFDE2A000EDD22000E0001CB
:102E3000916F000E906F90C05EF09269936941C0EF
:102E4000D9FF42C0DAFFDECF51F0DDCF52F051C0E2
:102E5000F6FF52C0F7FF0800F550640AD8B433EF0C
:102E600017F035EF17F043EF17F051C0F6FF52C0DF
:102E7000F7FF0800F550690AD8A441EF17F043EFB7
:102E800017F086EF17F043C0D9FF44C0DAFFDFCF59
:102E900045F0020EDE26DFCF46F0000EDD2245C0F3
:102EA000D9FF46C0DAFFDECF49F0DDCF4AF0000E91
:102EB0004ABEFF0E4B6E4C6E4D6E4E6E4F6E506E98
:102EC000010E5124456E000E5220466E41C0D9FFBE
:102ED00042C0DAFF45C0DEFF46C0DDFF3FC01CF048
:102EE00040C01DF049C01EF04AC01FF04BC020F08A
:102EF0004CC021F04DC022F04EC023F04FC024F052
:102F000050C025F071EC13F00DEF18F051C0F6FF32
:102F100052C0F7FF0800F550780AD8A492EF17F0D6
:102F200094EF17F0F0EF17F043C0D9FF44C0DAFF79
:102F3000DFCF45F0020EDE26DFCF46F0000EDD22A9
:102F400045C0D9FF46C0DAFFDECF47F0DDCF48F0FD
:102F500047C049F048C04AF04B6A4C6A4D6A4E6A15
:102F60004F6A506A010E5124456E000E5220466E83
:102F700041C0D9FF42C0DAFF45C0DEFF46C0DDFFD9
:102F8000DAEF17F03FC01CF040C01DF049C01EF042
:102F90004AC01FF04BC020F04CC021F04DC022F0C1
:102FA0004EC023F04FC024F050C025F0E8EC18F0DC
:102FB0000DEF18F051C0F6FF52C0F7FF0800F550B2
:102FC000456E466A4650000AD8B4E9EF17F0F0EFB4
:102FD00017F04550780AD8B4C2EF17F0F0EF17F0A9
:102FE00041C0D9FF42C0DAFFDE2A000EDD220DEF1C
:102FF00018F041C0D9FF42C0DAFFDECFF6FFDDCFC7
:10300000F7FF0800F550016E026A3FC003F040C0B0
:1030100004F01EEC1FF0F0EF17F01200096E0950DB
:10302000D8B415EF18F017EF18F039EF18F004BE08
:103030001EEF18F01CEF18F039EF18F001C005F082
:1030400002C006F003C007F004C008F0051E061E0B
:10305000071E081E052A000E06220722082205C0A8
:103060000BF006C00CF007C00DF008C00EF041EFE9
:1030700018F001C00BF002C00CF003C00DF004C04A
:103080000EF00150021003100410D8A44AEF18F0FB
:103090004CEF18F056EF18F0000E016E000E026EA5
:1030A000000E036E000E046EE7EF18F0960E0A6E27
:1030B00060EF18F00A2AD8900E320D320C320B3223
:1030C000000E0B14056E000E0C14066E000E0D148F
:1030D000076EFE0E0E14086E05500610071008103D
:1030E000D8A475EF18F077EF18F05AEF18F085EFC5
:1030F00018F00A2A010E0B26000E0C220D220E22B9
:10310000D8900E320D320C320B32000E0B14056EBD
:10311000000E0C14066E000E0D14076EFF0E0E143A
:10312000086E0550061007100810D8A49AEF18F082
:103130009CEF18F079EF18F0A4EF18F00A06D89079
:103140000B360C360D360E360DBEA9EF18F0ABEF70
:1031500018F0B3EF18F0020E0A60B1EF18F0B3EFF9
:1031600018F09EEF18F00AB0B8EF18F0BAEF18F0A8
:10317000BBEF18F00D9ED8900A320AC005F0066A1F
:10318000076A086A05C008F0076A066A056A0550FA
:103190000B1206500C1207500D1208500E12095057
:1031A000D8B4D5EF18F0D7EF18F0DFEF18F004BE61
:1031B000DEEF18F0DCEF18F0DFEF18F00E8E0BC02A
:1031C00001F00CC002F00DC003F00EC004F01200BC
:1031D000000193BFF6EF18F0935106E19205D8B0C5
:1031E000F4EF18F0F6EF18F0FCEF18F0000E336E65
:1031F000010E326E00EF19F092C032F093C033F03E
:1032000090C02EF091C02FF01EC034F01FC035F0DA
:1032100020C036F021C037F022C038F023C039F08A
:1032200024C03AF025C03BF0000E3D6E1F0E3C6EF0
:10323000000E01011F6F78EF19F03C06D8A03D0683
:1032400034500F0B3E6E090E3E6429EF19F02BEF40
:1032500019F033EF19F0570E3E24306E316A000E2C
:10326000312239EF19F0300E3E24306E316A000EF3
:10327000312230C03EF0000E3C24D96E010E3D20BC
:10328000DA6E3EC0DFFF3206D8A033062E06D8A085
:103290002F0634C026F035C027F036C028F037C0DE
:1032A00029F038C02AF039C02BF03AC02CF03BC0CE
:1032B0002DF0050E65EF19F0D8902D322C322B32FF
:1032C0002A322932283227322632E82E5CEF19F0D2
:1032D00026C034F027C035F028C036F029C037F0BA
:1032E0002AC038F02BC039F02CC03AF02DC03BF08A
:1032F0003DBE84EF19F03D5009E1020E3C5CD8A0C0
:1033000084EF19F086EF19F0A2EF19F03450351060
:1033100036103710381039103A103B10D8A493EFFC
:1033200019F095EF19F01DEF19F033BEA2EF19F067
:10333000335006E13204D8B0A0EF19F0A2EF19F033
:103340001DEF19F01CC011F01DC012F0000E3C243E
:10335000136E010E3D20146E2EC015F02FC016F016
:103360007CEC20F01200000E126E10BEBCEF19F0C3
:10337000BAEF19F0CEEF19F0101E0F1E0E1E0D1E23
:103380000C1E0B1E0A1E096C000E0A220B220C22B8
:103390000D220E220F221022010E126E08BED5EF52
:1033A00019F0D3EF19F0E7EF19F0081E071E061EFB
:1033B000051E041E031E021E016C000E02220322C3
:1033C00004220522062207220822010E121A20EEEC
:1033D00013F0070EDE6AE806FDE209500A100B1032
:1033E0000C100D100E100F101010D8B4FAEF19F0C9
:1033F000FCEF19F04EEF1AF0010E116E0AEF1AF001
:10340000D89009360A360B360C360D360E360F3686
:103410001036112A10AE0FEF1AF011EF1AF000EF6C
:103420001AF0D89013361436153616361736183665
:1034300019361A360950015C0A5002580B500358CD
:103440000C5004580D5005580E5006580F50075890
:1034500010500858D8A02FEF1AF031EF1AF042EFB1
:103460001AF00950015E0A50025A0B50035A0C50D0
:10347000045A0D50055A0E50065A0F50075A105054
:10348000085A1380D89010320F320E320D320C329F
:103490000B320A320932112E11EF1AF01250D8B441
:1034A00054EF1AF056EF1AF066EF1AF01A1E191EB2
:1034B000181E171E161E151E141E136C000E142245
:1034C000152216221722182219221A2213C001F0DF
:1034D00014C002F015C003F016C004F017C005F0C8
:1034E00018C006F019C007F01AC008F01200000E4C
:1034F000126E08BE80EF1AF07EEF1AF092EF1AF00B
:10350000081E071E061E051E041E031E021E016C59
:10351000000E02220322042205220622072208228C
:10352000010E126E10BE99EF1AF097EF1AF0A9EF84
:103530001AF0101E0F1E0E1E0D1E0C1E0B1E0A1E54
:10354000096C000E0A220B220C220D220E220F22E1
:10355000102209500A100B100C100D100E100F1035
:103560001010D8B4B6EF1AF0B8EF1AF000EF1BF055
:10357000010E116EC6EF1AF0D89009360A360B36D6
:103580000C360D360E360F361036112A10AECBEF34
:103590001AF0CDEF1AF0BCEF1AF00950015C0A5096
:1035A00002580B5003580C5004580D5005580E503B
:1035B00006580F50075810500858D8A0E2EF1AF0DC
:1035C000E4EF1AF0F4EF1AF00950015E0A50025AC3
:1035D0000B50035A0C50045A0D50055A0E50065AFF
:1035E0000F50075A1050085AD89010320F320E322E
:1035F0000D320C320B320A320932112ECDEF1AF095
:103600001250D8B406EF1BF008EF1BF018EF1BF0B8
:10361000081E071E061E051E041E031E021E016C48
:10362000000E02220322042205220622072208227B
:1036300001C001F002C002F003C003F004C004F0B6
:1036400005C005F006C006F007C007F008C008F086
:103650001200BA0E0124D96E000E0220DA6E01C0EB
:1036600003F002C004F0D89003360436D890033635
:103670000436D89003360436C10E0324E16E000EE2
:103680000420E26EE750056E01C006F002C007F0AC
:10369000D89006360736D89006360736D8900636C4
:1036A0000736C00E0624E16E000E0720E26EE750DA
:1036B0000A0DF3500524F00FDF6E8C0E0124D96E35
:1036C000000E0220DA6E01C003F002C004F0D890B0
:1036D00003360436D89003360436D89003360436C1
:1036E000C40E0324E16E000E0420E26EE750056E66
:1036F00001C006F002C007F0D89006360736D89011
:1037000006360736D89006360736C30E0624E16E15
:10371000000E0720E26EE7500A0DF3500524F00F6B
:10372000DF6E880E0124D96E000E0220DA6E01C011
:1037300003F002C004F0D89003360436D890033664
:103740000436D89003360436C70E0324E16E000E0B
:103750000420E26EE750056E01C006F002C007F0DB
:10376000D89006360736D89006360736D8900636F3
:103770000736C60E0624E16E000E0720E26EE75003
:103780000A0DF3500524F00FDF6E12000E6ED00EFE
:10379000FBEC22F0030E23EC23F00EC001F0026AD2
:1037A000000E046E0A0E036E83EC1FF001C00CF0D5
:1037B00002C00DF00C3AF00E0C16F00E0C160EC0F6
:1037C00001F0026A000E046E0A0E036EE5EC1FF0B3
:1037D00001500F0B0C2423EC23F009C001F0026A06
:1037E000000E046E0A0E036E83EC1FF001C00CF095
:1037F00002C00DF00C3AF00E0C16F00E0C1609C0BB
:1038000001F0026A000E046E0A0E036EE5EC1FF072
:1038100001500F0B0C2423EC23F00AC001F0026AC4
:10382000000E046E0A0E036E83EC1FF001C00CF054
:1038300002C00DF00C3AF00E0C16F00E0C160AC079
:1038400001F0026A000E046E0A0E036EE5EC1FF032
:1038500001500F0B0C2423EC23F00BC001F0026A83
:10386000000E046E0A0E036E83EC1FF001C00CF014
:1038700002C00DF00C3AF00E0C16F00E0C160BC038
:1038800001F0026A000E046E0A0E036EE5EC1FF0F2
:1038900001500F0B0C2423EC23F034EC23F0120026
:1038A000033404340A6E0A50D8A459EF1CF05BEFBD
:1038B0001CF065EF1CF0000E016E000E026E000E93
:1038C000036E000E046ED2EF1CF001C005F002C0C2
:1038D00006F003C007F004C008F0200E75EF1CF0DE
:1038E000D8900832073206320532E82E70EF1CF00D
:1038F0000550096E038EFF0E0116FF0E0216FF0E15
:103900000316000E0416960E0A5E0ABE8CEF1CF01B
:103910008AEF1CF0A2EF1CF00A50800A970FD8B073
:1039200094EF1CF096EF1CF098EF1CF05BEF1CF08E
:10393000D89004320332023201320A3E98EF1CF072
:10394000BAEF1CF01F0E0A64A8EF1CF0AAEF1CF0DF
:10395000B2EF1CF05BEF1CF0D89001360236033654
:1039600004360A060A50D8A4B8EF1CF0BAEF1CF0CF
:10397000ACEF1CF00950D8B4C0EF1CF0C2EF1CF043
:10398000CAEF1CF0041E031E021E016C000E022270
:103990000322042201C001F002C002F003C003F0C0
:1039A00004C004F01200000E0114096E000E02148F
:1039B0000A6E800E03140B6E7F0E04140C6E0950F9
:1039C0000A100B100C10D8A4E8EF1CF0EAEF1CF062
:1039D000F2EF1CF0000E016E000E026E000E036E80
:1039E000000E046E000E0514096E000E06140A6E19
:1039F000800E07140B6E7F0E08140C6E09500A100F
:103A00000B100C10D8A407EF1DF009EF1DF011EFFB
:103A10001DF0000E056E000E066E000E076E000E05
:103A2000086E04AE16EF1DF018EF1DF021EF1DF02B
:103A3000016C021ED8B0022A031ED8B0032A800EE1
:103A4000045608AE26EF1DF028EF1DF031EF1DF0F3
:103A5000056C061ED8B0062A071ED8B0072A800EAD
:103A60000856000E011A000E021A000E031A800EEC
:103A7000041A000E051A000E061A000E071A800E10
:103A8000081A0550015C06500258075003580850A8
:103A90000458D8B04EEF1DF050EF1DF053EF1DF05D
:103AA000D89054EF1DF0D8801200AC98AB8E948C57
:103AB000948E000E136E000E146E800E156E420E64
:103AC000166E51C001F052C002F053C003F054C052
:103AD00004F0010E0EEC18F001C00FF002C010F05F
:103AE00003C011F004C012F085EC0BF00FC02CF0F5
:103AF00010C02DF011C02EF012C02FF0000E286E55
:103B0000240E296EF40E2A6E4A0E2B6EA4EC11F0D0
:103B100028C041F029C042F02AC043F02BC044F035
:103B2000000E456E000E466E800E476EBF0E486E4C
:103B3000E5EC06F041C055F042C056F043C057F0E6
:103B400044C058F0000E016E000E026E7F0E036E30
:103B5000430E046E55C005F056C006F057C007F07E
:103B600058C008F0D3EC1CF0D8B0B9EF1DF0BBEF93
:103B70001DF0BCEF1DF0AC8455C001F056C002F042
:103B800057C003F058C004F050EC1CF00150AF6E69
:103B9000200EAC6E900EAB6EAB88AC8A12000001AA
:103BA0007051845D7151855972518659735187598D
:103BB000D8A0DDEF1DF0DFEF1DF0E3EF1DF0000EEC
:103BC000816F010E806F6051845D61518559625132
:103BD000865963518759D8B0F0EF1DF0F2EF1DF010
:103BE000FEEF1DF080058111D8A4F9EF1DF0FBEF69
:103BF0001DF0FEEF1DF0818C0BEF1EF09E51D8A43E
:103C000004EF1EF006EF1EF00BEF1EF0819C000E7D
:103C1000816F000E806F7851845D795185597A519A
:103C200086597B518759D8A018EF1EF01AEF1EF065
:103C30001EEF1EF0000E836F010E826F6851845DCF
:103C4000695185596A5186596B518759D8B02BEF04
:103C50001EF02DEF1EF039EF1EF082058311D8A45F
:103C600034EF1EF036EF1EF039EF1EF0818E46EF76
:103C70001EF09D51D8A43FEF1EF041EF1EF046EF1D
:103C80001EF0819E000E836F000E826F12000D6E7B
:103C90006BEC23F0D00EFBEC22F0000E23EC23F0B3
:103CA0000DC001F0026A000E046E0A0E036E83EC72
:103CB0001FF001C00BF002C00CF00B3AF00E0B1617
:103CC000F00E0B160DC001F0026A000E046E0A0E13
:103CD000036EE5EC1FF001500F0B0B2423EC23F0D7
:103CE00009C001F0026A000E046E0A0E036E83EC36
:103CF0001FF001C00BF002C00CF00B3AF00E0B16D7
:103D0000F00E0B1609C001F0026A000E046E0A0ED6
:103D1000036EE5EC1FF001500F0B0B2423EC23F096
:103D20000AC001F0026A000E046E0A0E036E83ECF4
:103D30001FF001C00BF002C00CF00B3AF00E0B1696
:103D4000F00E0B160AC001F0026A000E046E0A0E95
:103D5000036EE5EC1FF001500F0B0B2423EC23F056
:103D600034EC23F0120002500310D8A4BAEF1EF076
:103D7000BCEF1EF0E9EF1EF005BECAEF1EF00550C5
:103D800007E1100E045CD8B0C8EF1EF0CAEF1EF0B9
:103D9000E9EF1EF0800EB0EC22F0000E086E000E6F
:103DA000076ED8EF1EF0140EB0EC22F0074A082A76
:103DB0000450075C0850800A066E0550800A0658B9
:103DC000D8A0E5EF1EF0E7EF1EF0D3EF1EF01DEFD9
:103DD0001FF002040310D8A4F0EF1EF0F2EF1EF063
:103DE0001DEF1FF005BE00EF1FF0055007E1100E9C
:103DF000045CD8B0FEEF1EF000EF1FF01DEF1FF0C7
:103E0000C00EB0EC22F0000E0A6E000E096E0EEF2E
:103E10001FF0140EB0EC22F0094A0A2A0450095C83
:103E20000A50800A066E0550800A0658D8A01BEF7B
:103E30001FF01DEF1FF009EF1FF0120003500410D8
:103E4000D8B425EF1FF027EF1FF030EF1FF003501D
:103E50000410D8A42EEF1FF030EF1FF035EF1FF045
:103E60000150ADEC23F082EF1FF020EE09F003507B
:103E7000D9260450DA22DE50DE10D8B442EF1FF00B
:103E800044EF1FF05FEF1FF020EE09F00350D9263A
:103E90000450DA2210EE03F00350E1260450E2222F
:103EA000DE50E65CE650800A096EDE50800A095852
:103EB000D8B05DEF1FF05FEF1FF082EF1FF020EE34
:103EC00003F00350D9260450DA22DECF05F0DDCF0F
:103ED00006F003C0D9FF04C0DAFFDECF07F0DDCF64
:103EE00008F005500724D96E06500820DA6E01C08C
:103EF000DFFF20EE03F00350D9260450DA22DE2A39
:103F0000000EDD221200000E066E04BE8CEF1FF0C4
:103F10008AEF1FF092EF1FF0036C041ED8B0042A42
:103F2000010E066E02BE99EF1FF097EF1FF09FEF94
:103F30001FF0016C021ED8B0022A010E061A000EF4
:103F4000086E000E076E03500410D8B4AAEF1FF0DD
:103F5000ACEF1FF0D4EF1FF0010E056EB4EF1FF0B1
:103F6000D89003360436052A04AEB9EF1FF0BBEF34
:103F70001FF0B0EF1FF0D890073608360350015CF1
:103F800004500258D8A0C7EF1FF0C9EF1FF0CEEFC2
:103F90001FF00350015E0450025A0780D89004328B
:103FA0000332052EBBEF1FF00650D8B4DAEF1FF036
:103FB000DCEF1FF0E0EF1FF0076C081ED8B0082AF6
:103FC00007C001F008C002F01200000E066E02BE2B
:103FD000EEEF1FF0ECEF1FF0F4EF1FF0016C021E8C
:103FE000D8B0022A010E066E04BEFBEF1FF0F9EFF7
:103FF0001FF0FFEF1FF0036C041ED8B0042A03501B
:104000000410D8B406EF20F008EF20F02CEF20F0D9
:10401000010E056E10EF20F0D89003360436052A05
:1040200004AE15EF20F017EF20F00CEF20F0035056
:10403000015C04500258D8A020EF20F022EF20F0BD
:1040400026EF20F00350015E0450025AD89004324B
:104050000332052E17EF20F00650D8B432EF20F0CF
:1040600034EF20F038EF20F0016C021ED8B0022AA5
:1040700001C001F002C002F01200000E086E000E36
:10408000076E5DEF20F007500324056E08500420F2
:10409000066E05C0F6FF06C0F7FFF86A070EF76464
:1040A00003D00800F55005D0F6CFE1FFF7CFE2FFCF
:1040B000E7502DEC22F0074A082A07500324056E2A
:1040C00008500420066E05C0F6FF06C0F7FFF86A28
:1040D000070EF76403D00800F55005D0F6CFE1FFD6
:1040E000F7CFE2FFE7500009D8A479EF20F07BEF8B
:1040F00020F043EF20F0120016BE81EF20F083EF96
:1041000020F089EF20F015C01AF016C01BF08DEFDB
:1041100020F0000E1B6E000E1A6E000E196E000EBF
:10412000186E9FEF20F0000E026E200E016E11C07F
:1041300003F012C004F01EEC1FF0184A192A1A509E
:10414000185C1950800A176E1B50800A1758D8A0A7
:10415000ACEF20F0AEEF20F093EF20F013C00AF0A8
:1041600014C00BF011C00CF012C00DF050EC22F096
:104170001200270E026EF50EE82EFED7022EFCD797
:1041800000F0300E44EC23F00D0E026EFC0EE82E13
:10419000FED7022EFCD7300E44EC23F0420EE82E60
:1041A000FED700D0300E44EC23F01A0EE82EFED7D6
:1041B00000D0200E44EC23F01A0EE82EFED700D0DB
:1041C000280EB0EC22F00C0EB0EC22F0010EB0EC98
:1041D00022F0060E026E300EE82EFED7022EFCD71D
:1041E00000D0060EB0EC22F01200000E096E000E98
:1041F0000A6E000E0B6E000E0C6E01A002EF21F095
:1042000004EF21F00CEF21F00550092606500A2298
:1042100007500B2208500C22D89005360636073678
:104220000836D890043203320232013201500210B3
:1042300003100410D8A41FEF21F021EF21F0FDEFAF
:1042400020F009C001F00AC002F00BC003F00CC05E
:1042500004F01200D00EFBEC22F0030E23EC23F04E
:10426000D10EE4EC22F020EE03F00450D9260550E4
:10427000DA22000E92EC22F0DF6E20EE04F0045001
:10428000D9260550DA22000E92EC22F0DF6E20EEE5
:1042900005F00450D9260550DA22000E92EC22F0E7
:1042A000DF6E20EE06F00450D9260550DA22010E0A
:1042B00092EC22F0DF6E34EC23F012000EBE6AEFB7
:1042C00021F00E5009E1090E0D5CD8A06AEF21F033
:1042D0006CEF21F07AEF21F0000E036E010E026EFA
:1042E000070E0B24046E000E0C20056EB3EC1EF0BE
:1042F00086EF21F0000E036E000E026E070E0B24F7
:10430000046E000E0C20056EB3EC1EF0200E2DEC9A
:1043100022F0820E0F6EDE0EE82EFED70F2EFCD797
:104320001200E40E0001E66F000EE76FE0C0E8F057
:10433000E1C0E9F0000EEC6F000EEB6F000EF26FC3
:10434000000EF16FE80E536E000E546EE2C055F091
:10435000E3C056F0E60E576E000E586EE2EC21F008
:104360000001EB51E025D96EEC51E121DA6E000E2F
:10437000DF6E1200D00EFBEC22F0000E23EC23F0D7
:10438000D10EE4EC22F0000E92EC22F004C0D9FF32
:1043900005C0DAFFDF6E20EE01F00450D92605508B
:1043A000DA22000E92EC22F0DF6E20EE02F00450D2
:1043B000D9260550DA22010E92EC22F0DF6E34ECA1
:1043C00023F0120055C059F056C05AF0F6EF21F014
:1043D00053C03FF054C040F0590E416E000E426E83
:1043E00057C043F058C044F0FDEC16F059C0F6FF3A
:1043F0005AC0F7FF0800F5500009D8A402EF22F0D8
:1044000004EF22F0E8EF21F0000E546E000E536E20
:104410001200240EF66E460EF76E000EF86E00EED9
:10442000BEF010EE22F00900F5CFEEFFE550E150AE
:10443000FAE101EE00F0480EEE6AE806FDE100EE5A
:1044400060F05E0EEE6AE806FDE15E6A5F905F92E4
:10445000000EF86E000145EF09F0026E8380C30E76
:1044600083160240E8423F0B3C0B83128382030E0B
:10447000016E980EE82EFED7012EFCD78392C30E54
:1044800083160244E846FC0B3C0B83128382030E26
:10449000016E980EE82EFED7012EFCD783921200F3
:1044A000000E106E000E0F6E61EF22F00EC001F0D4
:1044B000026A0CC003F00DC004F01EEC1FF00F4A9E
:1044C000102A0F500A24D96E10500B20DA6EDF50DC
:1044D0000E6E0E50D8A46FEF22F071EF22F056EF5F
:1044E00022F0120014BE7FEF22F0145006E11304F4
:1044F000D8B07DEF22F07FEF22F08DEF22F013C0D5
:1045000015F014C016F0151E161E154A162A15C0F1
:1045100013F016C014F091EF22F013C013F014C082
:1045200014F01200016EC586C7A099EF22F09BEF30
:1045300022F094EF22F0C9CF02F0036A0150D8A410
:10454000A4EF22F0A6EF22F0AAEF22F080EC23F0F5
:10455000ACEF22F076EC23F08AEC23F0025012004C
:10456000016E8390C30E83160140E8423F0B3C0B63
:104570008312838200D08392C30E83160144E846DF
:10458000FC0B3C0B8312838200D0839283801A0E33
:10459000E82EFED700D01200026E02C0A9FF01C0B3
:1045A000A8FFA69EA69CA684F29E550EA76EAA0EF4
:1045B000A76EA682F28EA1A8E0EF22F0E2EF22F031
:1045C000DBEF22F0A1981200026EC582C5B2EBEFBC
:1045D00022F0EDEF22F0E6EF22F09E96C7B6F3EF61
:1045E00022F0F5EF22F0F7EF22F0FAEF22F002507E
:1045F00023EC23F01200026EC580C5B002EF23F059
:1046000004EF23F0FDEF22F09E96C7B60AEF23F0E9
:104610000CEF23F00EEF23F011EF23F0025023EC08
:1046200023F01200B30030303A30303A30303030BE
:104630003A30303A303030303A30303A3030303052
:104640003A30303A3030016E01C0C9FF8AEC23F0B5
:10465000C5AC2DEF23F02FEF23F032EF23F0010E46
:1046600033EF23F0020E1200C584C5B43AEF23F0F5
:104670003CEF23F035EF23F0C7A841EF23F043EFE1
:1046800023F03CEF23F01200016E8390C30E8316DB
:104690000140E8423F0B3C0B8312838200D083929F
:1046A0008380120006009EAA58EF23F05AEF23F0F1
:1046B0005DEF23F09E9AAECF9CF05F921100010E49
:1046C000B0EC22F0060E026E300EE82EFED7022E5F
:1046D000FCD700D0120093809382500EC76E280E34
:1046E000C66E000EC56E130EC86E1200C58AC58850
:1046F000C5B87DEF23F07FEF23F078EF23F01200B1
:10470000C59AC588C5B887EF23F089EF23F082EFFB
:1047100023F012009EA68FEF23F091EF23F08AEF93
:1047200023F09E961200959495969598959A959259
:104730009590B9EC20F01200016E01C0A9FFA6947B
:10474000A69EA680A8501200938493869388938A8D
:0C4750001200F28EF28C9D8A1200120002
:020000040020DA
:08000000FFFFFFFFFFFFFFFF00
:020000040030CA
:0E000000000C1F1EFF8185FF0FC00FE00F4098
:00000001FF
