:0400000007EF00F016
:0A0008005F824EED23F005EF22F0B9
:1008000000446174653A203025782D0054696D6587
:100810003A203025643A00446174653A2025782DE9
:100820000054696D653A2025643A0053746172740E
:10083000313A20005374617274323A200046696E76
:100840006973683A20003025642000257820000074
:1008500081A82DEF04F02FEF04F0C2EF04F004BEE6
:100860003AEF04F0045008E10304D8A03AEF04F092
:100870003CEF04F0C2EF04F00D0E056EFC0EE82E06
:10088000FED7052EFCD781B848EF04F04AEF04F0FC
:1008900043EF04F001C005F002C006F0D890053621
:1008A0000636D89005360636D89005360636BE0E82
:1008B0000524076E000E0620086E03500724D96E2B
:1008C00004500820DA6E2F0EDF6469EF04F06BEF3E
:1008D00004F0C2EF04F001C005F002C006F0D890A9
:1008E00005360636D89005360636D89005360636D3
:1008F000BE0E0524076E000E0620086E0350072466
:10090000D96E04500820DA6E390EDF608AEF04F0E9
:100910008CEF04F0C2EF04F001C005F002C006F055
:10092000D89005360636D89005360636D890053666
:100930000636BE0E0524076E000E0620086E035014
:100940000724D96E04500820DA6E01C009F002C0F5
:100950000AF0D89009360A36D89009360A36D89067
:1009600009360A36BE0E09240B6E000E0A200C6EE4
:1009700003500B24E16E04500C20E26EE7500D6E24
:100980000D28DF6E81AAC7EF04F0C9EF04F05CEF19
:1009900005F004BED4EF04F0045008E10304D8A02D
:1009A000D4EF04F0D6EF04F05CEF05F00D0E056E09
:1009B000FC0EE82EFED7052EFCD781BAE2EF04F03C
:1009C000E4EF04F0DDEF04F001C005F002C006F032
:1009D000D89005360636D89005360636D8900536B6
:1009E0000636BE0E0524076E000E0620086E035064
:1009F0000724D96E04500820DA6E300EDF6403EF4E
:100A000005F005EF05F05CEF05F001C005F002C050
:100A100006F0D89005360636D89005360636D890BA
:100A200005360636BE0E0524076E000E0620086E3B
:100A300003500724D96E04500820DA6E3A0EDF60A6
:100A400024EF05F026EF05F05CEF05F001C005F09E
:100A500002C006F0D89005360636D8900536063620
:100A6000D89005360636BE0E0524076E000E062009
:100A7000086E03500724D96E04500820DA6E01C0B6
:100A800009F002C00AF0D89009360A36D890093623
:100A90000A36D89009360A36BE0E09240B6E000EAF
:100AA0000A200C6E03500B24E16E04500C20E26E01
:100AB000E7500D6E0D04DF6E01C005F002C006F0B8
:100AC000D89005360636D89005360636D8900536C5
:100AD0000636BF0E0524D96E000E0620DA6E320EE1
:100AE000DF6475EF05F077EF05F08CEF05F001C0DE
:100AF00005F002C006F0D89005360636D8900536C7
:100B00000636D89005360636BF0E0524D96E000E7F
:100B10000620DA6E320EDF6E01C005F002C006F06C
:100B2000D89005360636D89005360636D890053664
:100B30000636BF0E0524D96E000E0620DA6E320E80
:100B4000DE18D8A4A6EF05F0A8EF05F0D8EF05F061
:100B500001C005F002C006F0D89005360636D890E0
:100B600005360636D89005360636C00E0524D96EF1
:100B7000000E0620DA6E330EDF64C1EF05F0C3EF1E
:100B800005F0D8EF05F001C005F002C006F0D890DE
:100B900005360636D89005360636D8900536063620
:100BA000C00E0524D96E000E0620DA6E330EDF6EFD
:100BB00001C005F002C006F0D89005360636D89080
:100BC00005360636D89005360636BF0E0524D96E92
:100BD000000E0620DA6E300EDE18D8A4F2EF05F013
:100BE000F4EF05F024EF06F001C005F002C006F0B6
:100BF000D89005360636D89005360636D890053694
:100C00000636C00E0524D96E000E0620DA6E390EA7
:100C1000DF640DEF06F00FEF06F024EF06F001C0E1
:100C200005F002C006F0D89005360636D890053695
:100C30000636D89005360636C00E0524D96E000E4D
:100C40000620DA6E390EDF6E01C005F002C006F034
:100C5000D89005360636D89005360636D890053633
:100C60000636C20E0524D96E000E0620DA6E350E49
:100C7000DF643DEF06F03FEF06F054EF06F001C0F1
:100C800005F002C006F0D89005360636D890053635
:100C90000636D89005360636C20E0524D96E000EEB
:100CA0000620DA6E350EDF6E01C005F002C006F0D8
:100CB000D89005360636D89005360636D8900536D3
:100CC0000636C30E0524D96E000E0620DA6E390EE4
:100CD000DF646DEF06F06FEF06F084EF06F001C001
:100CE00005F002C006F0D89005360636D8900536D5
:100CF0000636D89005360636C30E0524D96E000E8A
:100D00000620DA6E390EDF6E01C005F002C006F073
:100D1000D89005360636D89005360636D890053672
:100D20000636C50E0524D96E000E0620DA6E350E85
:100D3000DF649DEF06F09FEF06F0B4EF06F001C010
:100D400005F002C006F0D89005360636D890053674
:100D50000636D89005360636C50E0524D96E000E27
:100D60000620DA6E350EDF6E01C005F002C006F017
:100D7000D89005360636D89005360636D890053612
:100D80000636C60E0524D96E000E0620DA6E390E20
:100D9000DF64CDEF06F0CFEF06F0E4EF06F001C020
:100DA00005F002C006F0D89005360636D890053614
:100DB0000636D89005360636C60E0524D96E000EC6
:100DC0000620DA6E390EDF6E12004450800B4D6E35
:100DD000445044244F6E43AEF0EF06F0F2EF06F0BD
:100DE000F3EF06F04F804F50D8B4F9EF06F0FBEF69
:100DF00006F010EF07F04F28D8A401EF07F003EF3B
:100E000007F00BEF07F0000E416E000E426E000E71
:100E1000436E000E446E438E000E446E18EF07F0D2
:100E2000000E416E000E426E000E436E000E446EC8
:100E30004850800B4E6E4D504E18D8B422EF07F03C
:100E400024EF07F025EF07F04D8C485048244E6EF4
:100E500047AE2DEF07F02FEF07F030EF07F04E8091
:100E60004E50D8B436EF07F038EF07F04DEF07F0EB
:100E70004E28D8A43EEF07F040EF07F048EF07F008
:100E8000000E456E000E466E000E476E000E486E58
:100E9000478E000E486E55EF07F0000E456E000EAF
:100EA000466E000E476E000E486E4F504E5CD8B036
:100EB0005CEF07F05EEF07F085EF07F04DAC63EFF6
:100EC00007F065EF07F067EF07F0800E4D1A4FC08F
:100ED00050F04EC04FF050C04EF041C050F045C0F1
:100EE00041F050C045F042C050F046C042F050C002
:100EF00046F043C050F047C043F050C047F044C0F4
:100F000050F048C044F050C048F0000E506E4F50B2
:100F10004EC049F04A6A495E000E4A5A4ABE9AEFEC
:100F200007F04A5009E11A0E495CD8A09AEF07F081
:100F30009CEF07F0D3EF07F04150421043104410EC
:100F4000D8A4A5EF07F0A8EF07F0010EA9EF07F06E
:100F5000000E506E000E416E000E426E000E436E8B
:100F6000000E446E4EC04FF0DCEF07F050A0BBEF18
:100F700007F0BDEF07F0C3EF07F0D890503001093C
:100F8000506EC5EF07F0D890503241A0CAEF07F07D
:100F9000CCEF07F0CDEF07F0508E443444324332AB
:100FA000423241324F2A4E504F5CD8A0DAEF07F060
:100FB000DCEF07F0B6EF07F04DBCE1EF07F0E3EF31
:100FC00007F023EF08F04F50D8A4E9EF07F0EBEF5C
:100FD00007F0F5EF07F0000E416E000E426E000EB6
:100FE000436E000E446E44EF09F0455041264650D2
:100FF0004222475043224850442244A002EF08F0C6
:1010000004EF08F0B0EF08F050A009EF08F00BEF84
:1010100008F011EF08F0D89050300109506E13EF2E
:1010200008F0D890503241A018EF08F01AEF08F0FD
:101030001BEF08F0508E4434443243324232413286
:101040004F2AB0EF08F04550415C46504258475097
:1010500043584450800A496E4850800A4958D8B0D5
:1010600034EF08F036EF08F061EF08F04150455CCE
:10107000496E425046584A6E435047584B6E445052
:1010800048584C6EFF0E4924416EFF0E4A20426EB6
:10109000FF0E4B20436EFF0E4C20446E800E4D1A07
:1010A000506C5050D8A457EF08F059EF08F069EF92
:1010B00008F0010E4126000E42224322442269EF2D
:1010C00008F04550415E4650425A4750435A4850F6
:1010D000445A4150421043104410D8A472EF08F013
:1010E00074EF08F0A9EF08F05050D8A47AEF08F098
:1010F0007CEF08F0A9EF08F0000E416E000E426E82
:10110000000E436E000E446E44EF09F0D890413655
:1011100042364336443650AE90EF08F092EF08F076
:1011200093EF08F0418050A098EF08F09AEF08F094
:101130009EEF08F0D8805036A0EF08F0D8905036D7
:101140004F50D8B4A6EF08F0A8EF08F0A9EF08F0C8
:101150004F0643AEAEEF08F0B0EF08F086EF08F0B0
:10116000000E4E6E50AEB7EF08F0B9EF08F0D1EFB9
:1011700008F050C049F07F0E4916D8B4C2EF08F00D
:10118000C4EF08F0C8EF08F0010E4E6ED1EF08F082
:1011900041A0CDEF08F0CFEF08F0D1EF08F0C4EF99
:1011A00008F04E50D8B4D7EF08F0D9EF08F004EFAC
:1011B00009F0010E4126000E42224322442244A09F
:1011C000E4EF08F0E6EF08F004EF09F041C049F061
:1011D00042C04AF043C04BF044C04CF04C344C3257
:1011E0004B324A32493249C041F04AC042F04BC00A
:1011F00043F04CC044F04F28D8B401EF09F003EF9E
:1012000009F004EF09F04F2A4F28D8B40AEF09F08B
:101210000CEF09F014EF09F04F50D8A412EF09F0C9
:1012200014EF09F026EF09F0000E416E000E426E39
:10123000000E436E000E446E4F50D8A422EF09F00A
:1012400024EF09F026EF09F0000E4D6E4FA02BEFB2
:1012500009F02DEF09F030EF09F0438E31EF09F07E
:10126000439ED8904F30446E4DAE39EF09F03BEFBE
:1012700009F03CEF09F0448E41C041F042C042F019
:1012800043C043F044C044F01200010E0001F76F68
:10129000A0EC23F0939C939E8FEC23F067EC23F05B
:1012A000800E516E250E526E000E536E000E546E5F
:1012B00051EC1DF0A5EC23F01E0E096E0C0E0A6E0B
:1012C0001E0E43EC1EF01E0E096E0C0E0A6E160E5C
:1012D0000B6E050EC2EC1BF0000E0001F26FF25116
:1012E00098EC23F0FF0AD8A478EF09F07AEF09F020
:1012F00080EF09F0300E016E0001F251C8EC22F0CF
:101300000001F22B1F0EF26588EF09F08AEF09F059
:101310006FEF09F0000EF36F000EF56F020EF51976
:10132000D8B495EF09F097EF09F016EF0AF0050E23
:10133000F519D8A49EEF09F0A0EF09F0F9EF09F034
:1013400016EF0AF0F351080DBF0EF3245C6E000E89
:10135000F4205D6EF5515C24D96E000E5D20DA6ECE
:10136000F351F52598EC23F0DF6E16EF0AF0F351F8
:10137000080DBF0EF3245C6E000EF4205D6EF55177
:101380005C24D96E000E5D20DA6EF351F525070F4F
:1013900098EC23F0DF6E16EF0AF0F351080DBF0E44
:1013A000F3245C6E000EF4205D6EF5515C24D96E62
:1013B000000E5D20DA6EF351F5250E0F98EC23F048
:1013C000DF6E16EF0AF0F351080DBF0EF3245C6ECA
:1013D000000EF4205D6EF5515C24D96E000E5D2088
:1013E000DA6EF351F525150F98EC23F0DF6E16EF4A
:1013F0000AF0F3515C6E5D6A5D50000AD8B403EFE9
:101400000AF016EF0AF05C50000AD8B4A2EF09F017
:10141000010AD8B4B7EF09F0030AD8B4CDEF09F048
:10142000010AD8B4E3EF09F016EF0AF00001F52B3A
:10143000070EF5651EEF0AF020EF0AF08EEF09F0B7
:10144000F32B030EF36527EF0AF029EF0AF08CEF78
:1014500009F000019C51D8B430EF0AF032EF0AF0E5
:1014600063EF0AF044EF0AF0818C010E9D6F61EF8B
:101470000AF0819C000E9D6F61EF0AF0818E35EFBE
:101480000AF0819E3AEF0AF09C515C6E5D6A5D50F5
:10149000000AD8B44EEF0AF061EF0AF05C50410A3E
:1014A000D8B434EF0AF0030AD8B439EF0AF0010ACD
:1014B000D8B43EEF0AF0070AD8B441EF0AF061EF62
:1014C0000AF0000E9C6F81A468EF0AF06AEF0AF040
:1014D00094EF0AF00D0E5C6EFC0EE82EFED75C2E2B
:1014E000FCD781B476EF0AF078EF0AF071EF0AF0DA
:1014F0005BEC23F00001F72B030EF76582EF0AF097
:1015000084EF0AF094EF0AF0010EF76F94EF0AF0FF
:10151000ACEC14F0ADEF0AF09BEC0FF0ADEF0AF07D
:1015200096EC0DF0ADEF0AF0F7515C6E5D6A5D5020
:10153000000AD8B49EEF0AF088EF0AF05C50010A66
:10154000D8B488EF0AF0030AD8B48CEF0AF0010A85
:10155000D8B490EF0AF088EF0AF0000E0001F46FA3
:10156000000EF66F020EF619D8B4B9EF0AF0BBEF11
:101570000AF03EEF0BF0050EF619D8A4C2EF0AF000
:10158000C4EF0AF021EF0BF03EEF0BF0F451080D21
:10159000BF0EF3245C6E000EF4205D6EF6515C24E9
:1015A000D96E000E5D20DA6EDF50016EF451F62523
:1015B000C8EC22F03EEF0BF0F451080DBF0EF324FF
:1015C0005C6E000EF4205D6EF6515C24D96E000E48
:1015D0005D20DA6EDF50016EF451F625070FC8EC7E
:1015E00022F03EEF0BF0F451080DBF0EF3245C6EB9
:1015F000000EF4205D6EF6515C24D96E000E5D2065
:10160000DA6EDF50016EF451F6250E0FC8EC22F0B1
:101610003EEF0BF0F451080DBF0EF3245C6E000E8C
:10162000F4205D6EF6515C24D96E000E5D20DA6EFA
:10163000DF50016EF451F625150FC8EC22F03EEF95
:101640000BF0F4515C6E5D6A5D50000AD8B42BEF6C
:101650000BF03EEF0BF05C50000AD8B4C6EF0AF076
:10166000010AD8B4DCEF0AF0030AD8B4F3EF0AF0A9
:10167000010AD8B40AEF0BF03EEF0BF00001F62B95
:10168000070EF66546EF0BF048EF0BF0B2EF0AF0ED
:10169000F42B030EF4654FEF0BF051EF0BF0B0EFAE
:1016A0000AF0000E026E000E016E25EC1BF0000E1B
:1016B000026E010E016E25EC1BF0000E0E6E000E88
:1016C0000D6E000E106E010E0F6ED9EC15F0000EAF
:1016D000026E020E016E25EC1BF0000E026E030E70
:1016E000016E25EC1BF0000E0E6E020E0D6E000E4C
:1016F000106E030E0F6ED9EC15F029EF0AF007EF0C
:1017000000F01250800B1B6E12501224216E11AE8D
:101710008CEF0BF08EEF0BF08FEF0BF02180215050
:10172000D8B495EF0BF097EF0BF0AAEF0BF0212850
:10173000D8A49DEF0BF09FEF0BF0A7EF0BF0000E7E
:101740000F6E000E106E000E116E000E126E118ED6
:10175000B2EF0BF0000E0F6E000E106E000E116E49
:10176000000E126E1650800B1B1A16501624206E97
:1017700015AEBDEF0BF0BFEF0BF0C0EF0BF020800C
:101780002050D8B4C6EF0BF0C8EF0BF0DBEF0BF036
:101790002028D8A4CEEF0BF0D0EF0BF0D8EF0BF051
:1017A000000E136E000E146E000E156E000E166EF7
:1017B000158EE3EF0BF0000E136E000E146E000E8C
:1017C000156E000E166E2050D8B4E9EF0BF0EBEF5B
:1017D0000BF0F3EF0BF02150D8A4F1EF0BF0F3EF87
:1017E0000BF0FDEF0BF0000E0F6E000E106E000EF2
:1017F000116E000E126E95EF0DF015500F02F3CF23
:1018000026F0F4CF27F026501C6E1D6A1E6A1F6A50
:101810002750226E236A246A256A14501002F3CFDF
:1018200026F0F4CF27F026501C26000E1D221E2283
:101830001F2227502226000E232224222522135065
:101840001102F3CF26F0F4CF27F026501C26000E0D
:101850001D221E221F2227502226000E2322242270
:1018600025221EC01FF01DC01EF01CC01DF01C6AEA
:1018700013501002F3CF26F0F4CF27F026501C2689
:1018800027501D22000E1E22000E1F2214500F0290
:10189000F3CF26F0F4CF27F026501C2627501D2228
:1018A000000E1E22000E1F221EC01FF01DC01EF0C3
:1018B0001CC01DF01C6A13500F02F3CF26F0F4CFAA
:1018C00027F026501C2627501D22000E1E22000E37
:1018D0001F2215501002F3CF26F0F4CF27F0265028
:1018E000222627502322000E2422000E25221450E7
:1018F0001102F3CF26F0F4CF27F0265022262750EE
:101900002322000E2422000E252215501102F3CFAF
:1019100026F0F4CF27F02650176E2750186E196A5C
:101920001A6A19C01AF018C019F017C018F0176A0F
:101930001750222618502322195024221A502522EB
:101940001CC017F01DC018F01EC019F01FC01AF0FF
:10195000190EB0EF0CF0D8901A3219321832173233
:10196000E82EABEF0CF01750222618502322195006
:1019700024221A5025221EC01FF01DC01EF01CC0BC
:101980001DF01C6A205021C017F0186A1726000E9F
:101990001822820E1724266EFF0E1820276EE6EFFF
:1019A0000CF0D89022362336243625361FAEDBEFD6
:1019B0000CF0DDEF0CF0DEEF0CF02280D8901C363E
:1019C0001D361E361F362606D8A0270624AEEBEF9E
:1019D0000CF0EDEF0CF0D1EF0CF0000E206E1FAE0E
:1019E000F4EF0CF0F6EF0CF01AEF0DF0FF0E1C14F4
:1019F000176EFF0E1D14186EFF0E1E14196E7F0E4B
:101A00001F141A6E1750181019101A10D8B40BEFB3
:101A10000DF00DEF0DF011EF0DF0010E206E1AEF2D
:101A20000DF022A016EF0DF018EF0DF01AEF0DF0EB
:101A30000DEF0DF02050D8B420EF0DF022EF0DF097
:101A400046EF0DF0010E2226000E2322242225222D
:101A500025A02DEF0DF02FEF0DF046EF0DF022C079
:101A600017F023C018F024C019F025C01AF01A345A
:101A70001A3219321832173217C022F018C023F068
:101A800019C024F01AC025F0264A272A27BE51EF94
:101A90000DF0275008E12628D8A051EF0DF053EFA4
:101AA0000DF05DEF0DF0000E226E000E236E800E25
:101AB000246E7F0E256E8BEF0DF027BE6AEF0DF0C2
:101AC000275006E12604D8B068EF0DF06AEF0DF05C
:101AD00076EF0DF0000E226E000E236E000E246EC7
:101AE000000E256E000E1B6E8BEF0DF026C021F050
:101AF000FF0E2216FF0E23167F0E2416000E25164B
:101B000021A085EF0DF087EF0DF088EF0DF0248E0A
:101B1000D8902130256E1B50251222C00FF023C013
:101B200010F024C011F025C012F01200000E036E58
:101B3000000E026E000E056E000E046EAFEC1EF07D
:101B4000340E036E080E046E39EC20F0000E136E96
:101B5000000E126ECF0E1224D96E000E1320DA6E14
:101B6000DF5029EC22F0124A132A13BEC1EF0DF008
:101B7000135009E1080E125CD8A0C1EF0DF0C3EFBD
:101B80000DF0AAEF0DF0000E036E010E026E000EB6
:101B9000056E000E046EAFEC1EF03D0E036E080ED7
:101BA000046E39EC20F0000E156E000E146ED70E88
:101BB0001424D96E000E1520DA6EDF5029EC22F0C5
:101BC000144A152A15BEEEEF0DF0155009E1080E66
:101BD000145CD8A0EEEF0DF0F0EF0DF0D7EF0DF0A4
:101BE000820E106EDE0EE82EFED7102EFCD781A6D8
:101BF000FCEF0DF0FEEF0DF06FEF0EF00D0E106E1E
:101C0000FC0EE82EFED7102EFCD781B60AEF0EF0A0
:101C10000CEF0EF005EF0EF0000197BF1BEF0EF07A
:101C2000975107E1090E965DD8B019EF0EF01BEF42
:101C30000EF01FEF0EF0964B972B21EF0EF0944B0A
:101C4000952B030E96199711D8A429EF0EF02BEFC0
:101C50000EF02FEF0EF0000E976F040E966F060E2B
:101C600096199711D8A437EF0EF039EF0EF03DEF2B
:101C70000EF0000E976F070E966F030E94199511D4
:101C8000D8A445EF0EF047EF0EF04BEF0EF0000E2C
:101C9000956F040E946F060E94199511D8A453EF06
:101CA0000EF055EF0EF059EF0EF0000E956F070E87
:101CB000946F95BF65EF0EF0955109E1090E945DA3
:101CC000D8A065EF0EF067EF0EF06FEF0EF0000E8C
:101CD000976F000E966F000E956F000E946F0001C7
:101CE00097BF7BEF0EF0975108E19605D8A07BEFE8
:101CF0000EF07DEF0EF097EF0EF097BF8BEF0EF02A
:101D0000975107E1090E965DD8B089EF0EF08BEF81
:101D10000EF097EF0EF0000E026E020E016E96C0EE
:101D200003F097C004F028EC04F006EF0FF095BF25
:101D3000A2EF0EF0955108E19405D8A0A2EF0EF0A5
:101D4000A4EF0EF006EF0FF095BFB2EF0EF0955135
:101D500007E1090E945DD8B0B0EF0EF0B2EF0EF0CF
:101D600006EF0FF0000E026E030E016E94C003F03A
:101D700095C004F028EC04F006EF0FF0000E0C6E96
:101D8000010E0B6E96C00DF097C00EF05AEC21F0CC
:101D900074EF0FF0000E0C6E020E0B6E96C00DF07D
:101DA00097C00EF05AEC21F074EF0FF0000E0C6E9D
:101DB000040E0B6E96C00DF097C00EF05AEC21F099
:101DC00074EF0FF0000E0C6E050E0B6E96C00DF04A
:101DD00097C00EF05AEC21F074EF0FF0000E0C6E6D
:101DE000070E0B6E96C00DF097C00EF05AEC21F066
:101DF00074EF0FF0000E0C6E080E0B6E96C00DF017
:101E000097C00EF05AEC21F074EF0FF096C010F06E
:101E100097C011F01150000AD8B411EF0FF074EF11
:101E20000FF01050010AD8B4BEEF0EF0030AD8B478
:101E3000CAEF0EF0060AD8B4D6EF0EF0010AD8B4F5
:101E4000E2EF0EF0020AD8B4EEEF0EF00F0AD8B4AB
:101E5000FAEF0EF074EF0FF0000E0C6E010E0B6E29
:101E600096C00DF097C00EF05AEC21F09AEF0FF0EB
:101E7000000E0C6E020E0B6E96C00DF097C00EF0A9
:101E80005AEC21F09AEF0FF0000E0C6E040E0B6E60
:101E900096C00DF097C00EF05AEC21F09AEF0FF0BB
:101EA000000E0C6E050E0B6E96C00DF097C00EF076
:101EB0005AEC21F09AEF0FF0000E0C6E070E0B6E2D
:101EC00096C00DF097C00EF05AEC21F09AEF0FF08B
:101ED000000E0C6E080E0B6E96C00DF097C00EF043
:101EE0005AEC21F09AEF0FF094C010F095C011F069
:101EF0001150000AD8B47FEF0FF09AEF0FF0105096
:101F0000010AD8B42CEF0FF0030AD8B438EF0FF061
:101F1000060AD8B444EF0FF0010AD8B450EF0FF01E
:101F2000020AD8B45CEF0FF00F0AD8B468EF0FF0D4
:101F30009AEF0FF01200000E036E000E026E000EFC
:101F4000056E000E046EAFEC1EF02B0E036E080E35
:101F5000046E39EC20F0000E136E000E126EBF0EF0
:101F60001224D96E000E1320DA6EDF5029EC22F015
:101F7000124A132A13BEC6EF0FF0135009E1080EE0
:101F8000125CD8A0C6EF0FF0C8EF0FF0AFEF0FF064
:101F9000000E036E010E026E000E056E000E046E42
:101FA000AFEC1EF03D0E036E080E046E39EC20F00F
:101FB000000E156E000E146EC70E1424D96E000E9E
:101FC0001520DA6EDF5029EC22F0144A152A15BECE
:101FD000F3EF0FF0155009E1080E145CD8A0F3EFF1
:101FE0000FF0F5EF0FF0DCEF0FF0820E106EDE0E4B
:101FF000E82EFED7102EFCD781A601EF10F003EFDC
:1020000010F074EF10F00D0E106EFC0EE82EFED7DF
:10201000102EFCD781B60FEF10F011EF10F00AEF81
:1020200010F000019BBF20EF10F09B5107E1090E5B
:102030009A5DD8B01EEF10F020EF10F024EF10F0F2
:102040009A4B9B2B26EF10F0984B992B030E9A1965
:102050009B11D8A42EEF10F030EF10F034EF10F0F9
:10206000000E9B6F040E9A6F060E9A199B11D8A44E
:102070003CEF10F03EEF10F042EF10F0000E9B6FBF
:10208000070E9A6F030E98199911D8A44AEF10F011
:102090004CEF10F050EF10F0000E996F040E986F97
:1020A000060E98199911D8A458EF10F05AEF10F0B5
:1020B0005EEF10F0000E996F070E986F99BF6AEFF0
:1020C00010F0995109E1090E985DD8A06AEF10F05F
:1020D0006CEF10F074EF10F0000E9B6F000E9A6F13
:1020E000000E996F000E986F00019BBF80EF10F0FB
:1020F0009B5108E19A05D8A080EF10F082EF10F014
:102100009CEF10F09BBF90EF10F09B5107E1090E80
:102110009A5DD8B08EEF10F090EF10F09CEF10F0B9
:10212000000E026E000E016E9AC003F09BC004F018
:1021300028EC04F00BEF11F099BFA7EF10F09951C4
:1021400008E19805D8A0A7EF10F0A9EF10F00BEF69
:1021500011F099BFB7EF10F0995107E1090E985DA2
:10216000D8B0B5EF10F0B7EF10F00BEF11F0000E94
:10217000026E010E016E98C003F099C004F028ECC5
:1021800004F00BEF11F0000E0C6E010E0B6E9AC0F6
:102190000DF09BC00EF05AEC21F079EF11F0000E1B
:1021A0000C6E020E0B6E9AC00DF09BC00EF05AEC36
:1021B00021F079EF11F0000E0C6E040E0B6E9AC038
:1021C0000DF09BC00EF05AEC21F079EF11F0000EEB
:1021D0000C6E050E0B6E9AC00DF09BC00EF05AEC03
:1021E00021F079EF11F0000E0C6E070E0B6E9AC005
:1021F0000DF09BC00EF05AEC21F079EF11F0000EBB
:102200000C6E080E0B6E9AC00DF09BC00EF05AECCF
:1022100021F079EF11F09AC010F09BC011F011502D
:10222000000AD8B416EF11F079EF11F01050010A3E
:10223000D8B4C3EF10F0030AD8B4CFEF10F0060AF9
:10224000D8B4DBEF10F0010AD8B4E7EF10F0020ABF
:10225000D8B4F3EF10F00F0AD8B4FFEF10F079EF15
:1022600011F0000E0C6E010E0B6E9AC00DF09BC0AB
:102270000EF05AEC21F09FEF11F0000E0C6E020EE2
:102280000B6E9AC00DF09BC00EF05AEC21F09FEF40
:1022900011F0000E0C6E040E0B6E9AC00DF09BC078
:1022A0000EF05AEC21F09FEF11F0000E0C6E050EAF
:1022B0000B6E9AC00DF09BC00EF05AEC21F09FEF10
:1022C00011F0000E0C6E070E0B6E9AC00DF09BC045
:1022D0000EF05AEC21F09FEF11F0000E0C6E080E7C
:1022E0000B6E9AC00DF09BC00EF05AEC21F09FEFE0
:1022F00011F098C010F099C011F01150000AD8B434
:1023000084EF11F09FEF11F01050010AD8B431EFB3
:1023100011F0030AD8B43DEF11F0060AD8B449EF22
:1023200011F0010AD8B455EF11F0020AD8B461EFE8
:1023300011F00F0AD8B46DEF11F09FEF11F01200F9
:102340002B50800B386E2B502B243F6E2AAEABEFF8
:1023500011F0ADEF11F0AEEF11F03F803F50D8B467
:10236000B4EF11F0B6EF11F0CBEF11F03F28D8A485
:10237000BCEF11F0BEEF11F0C6EF11F0000E286EA9
:10238000000E296E000E2A6E000E2B6E2A8E000E95
:102390002B6ED3EF11F0000E286E000E296E000E8A
:1023A0002A6E000E2B6E2F50800B381A2F502F24C0
:1023B000406E2EAEDEEF11F0E0EF11F0E1EF11F024
:1023C00040804050D8B4E7EF11F0E9EF11F0FEEF94
:1023D00011F04028D8A4EFEF11F0F1EF11F0F9EF70
:1023E00011F0000E2C6E000E2D6E000E2E6E000EE3
:1023F0002F6E2E8E000E2F6E06EF12F0000E2C6E3A
:10240000000E2D6E000E2E6E000E2F6E2C502D1015
:102410002E102F10D8A40FEF12F011EF12F029EFA9
:1024200012F0000E286E000E296E000E2A6E000EAD
:102430002B6E800E2A127F0E2B1238502B1228C0C2
:1024400028F029C029F02AC02AF02BC02BF06CEF0D
:1024500013F03F50D8A42FEF12F031EF12F03BEF02
:1024600012F0000E286E000E296E000E2A6E000E6D
:102470002B6E6CEF13F040503FC030F0316A305E8D
:10248000000E315A7F0E3024396E000E31203A6E24
:1024900028C034F029C035F02AC036F02BC037F000
:1024A000000E286E000E296E000E2A6E000E2B6E96
:1024B000000E3B6E000E3C6E000E3D6E000E3E6E3A
:1024C000000E406E9CEF12F04050D8B46AEF12F04C
:1024D0006CEF12F083EF12F0D89034363536363682
:1024E0003736D890283629362A362B363EAE7BEF43
:1024F00012F07DEF12F07EEF12F02880D8903B367C
:102500003C363D363E362C50345C2D5035582E50DE
:1025100036582F503758D8A090EF12F092EF12F0A3
:102520009BEF12F03E8C2C50345E2D50355A2E50BD
:10253000365A2F50375A402A190E4064A2EF12F033
:10254000A4EF12F064EF12F034503510361037104B
:10255000D8B4ADEF12F0AFEF12F0C7EF12F03B803E
:10256000C7EF12F0D890283629362A362B363EAEE1
:10257000BCEF12F0BEEF12F0BFEF12F02880D8903F
:102580003B363C363D363E363906D8A03A062AAEB2
:10259000CCEF12F0CEEF12F0B2EF12F0000E406E60
:1025A0003EAED5EF12F0D7EF12F0FBEF12F0FF0EB8
:1025B0003B14306EFF0E3C14316EFF0E3D14326E34
:1025C0007F0E3E14336E3050311032103310D8B4B9
:1025D000ECEF12F0EEEF12F0F2EF12F0010E406E9F
:1025E000FBEF12F028A0F7EF12F0F9EF12F0FBEF7B
:1025F00012F0EEEF12F04050D8B401EF13F003EFF9
:1026000013F027EF13F0010E2826000E29222A22AC
:102610002B222BA00EEF13F010EF13F027EF13F087
:1026200028C030F029C031F02AC032F02BC033F07E
:102630003334333232323132303230C028F031C0AC
:1026400029F032C02AF033C02BF0394A3A2A3ABE78
:1026500032EF13F03A5008E13928D8A032EF13F0E6
:1026600034EF13F03FEF13F0000E3A6E3968000EAE
:10267000286E000E296E000E2A6E000E2B6E3ABEDA
:102680004CEF13F03A5006E13904D8B04AEF13F09A
:102690004CEF13F05AEF13F0000E3A6E000E396E45
:1026A000000E286E000E296E000E2A6E000E2B6E94
:1026B000000E386E39C03FF03FA061EF13F063EFBA
:1026C00013F066EF13F02A8E67EF13F02A9ED8906E
:1026D0003F302B6E1DEF12F012001EC034F01FC0F1
:1026E00035F020C036F021C037F022C038F023C0CA
:1026F00039F024C03AF025C03BF03BBE82EF13F026
:1027000085EF13F0010E86EF13F0000E3E6E3E5083
:10271000D8B48DEF13F08FEF13F09FEF13F03B1E43
:102720003A1E391E381E371E361E351E346C000EFA
:10273000352236223722382239223A223B22000122
:1027400093BFADEF13F0935106E19205D8B0ABEF14
:1027500013F0ADEF13F0B3EF13F0000E316E010E76
:10276000306EB7EF13F092C030F093C031F090C0EC
:1027700032F091C033F03E50D8B4C1EF13F0C3EF44
:1027800013F0DAEF13F03206D8A033063E50D8A487
:10279000CCEF13F0CEEF13F0D4EF13F0000E2F6E4A
:1027A0002B0E2E6ED8EF13F0000E2F6E2D0E2E6E08
:1027B0002EC03EF0000E3D6E1F0E3C6E000E01015D
:1027C0001F6F5FEF14F03C06D8A03D06000E3C24BE
:1027D000D96E010E3D20DA6E34C001F035C002F032
:1027E00036C003F037C004F038C005F039C006F039
:1027F0003AC007F03BC008F00A0E096E000E0A6EE0
:10280000000E0B6E000E0C6E000E0D6E000E0E6EA6
:10281000000E0F6E000E106E73EC1AF001C026F061
:1028200002C027F003C028F004C029F005C02AF038
:1028300006C02BF007C02CF008C02DF026C013F006
:1028400027C014F06EEC22F01350300FDF6E30060C
:10285000D8A031063206D8A0330634C001F035C006
:1028600002F036C003F037C004F038C005F039C0BC
:1028700006F03AC007F03BC008F00A0E096E000EE1
:102880000A6E000E0B6E000E0C6E000E0D6E000E2A
:102890000E6E000E0F6E000E106EAFEC19F001C040
:1028A00034F002C035F003C036F004C037F005C084
:1028B00038F006C039F007C03AF008C03BF03DBE22
:1028C0006AEF14F03D5008E13C04D8A06AEF14F020
:1028D0006CEF14F088EF14F03450351036103710C8
:1028E000381039103A103B10D8A479EF14F07BEF70
:1028F00014F0E3EF13F031BE88EF14F0315006E12D
:102900003004D8B086EF14F088EF14F0E3EF13F042
:102910003E50D8B48EEF14F090EF14F09BEF14F00B
:102920003C06D8A03D06000E3C24D96E010E3D2089
:10293000DA6E3EC0DFFF1CC011F01DC012F0000EA9
:102940003C24136E010E3D20146E32C015F033C0CE
:1029500016F078EC20F01200B20E046E000E056E38
:10296000B6EC21F0B20E046E000E056E26EC21F0DE
:10297000B2C05BF00F0E5B160001B2390F0B0F0BEC
:102980000A0DF3505B24B26FB3C05BF00F0E5B1601
:10299000B3390F0B0F0B0A0DF3505B24B36FB4C0A8
:1029A0005BF00F0E5B16B4390F0B0F0B0A0DF350D3
:1029B0005B24B46F0A0EB261E0EF14F0E2EF14F0A2
:1029C000F1EF14F0A80EDF6F000EE06F460EE16F1E
:1029D000080EE26FB2C0E3F0E46B8DEC21F0FEEF85
:1029E00014F0A80EDF6F000EE06F470EE16F080EC7
:1029F000E26FB2C0E3F0E46B8DEC21F00A0E00014F
:102A0000B36105EF15F007EF15F016EF15F09E0E08
:102A1000DF6F000EE06F120EE16F080EE26FB3C0C1
:102A2000E3F0E46B8DEC21F023EF15F09E0EDF6FE9
:102A3000000EE06F270EE16F080EE26FB3C0E3F007
:102A4000E46B8DEC21F00A0E0001B4612AEF15F061
:102A50002CEF15F03BEF15F03E0EDF6F010EE06F2F
:102A60000C0EE16F080EE26FB4C0E3F0E46B8DEC86
:102A700021F048EF15F03E0EDF6F010EE06F210EE2
:102A8000E16F080EE26FB4C0E3F0E46B8DEC21F06F
:102A9000000E036E000E026E000E056E000E046E38
:102AA000AFEC1EF03E0E036E010E046E39EC20F00A
:102AB0009E0E036E000E046E39EC20F0A80E036E1D
:102AC000000E046E39EC20F00A0E0001B6616BEFC7
:102AD00015F06DEF15F07CEF15F0340EDF6F010E81
:102AE000E06F010EE16F080EE26FB6C0E3F0E46B39
:102AF0008DEC21F089EF15F0340EDF6F010EE06FE1
:102B0000170EE16F080EE26FB6C0E3F0E46B8DECD8
:102B100021F00A0E0001B76190EF15F092EF15F069
:102B2000A1EF15F02A0EDF6F010EE06F070EE16FC7
:102B3000080EE26FB7C0E3F0E46B8DEC21F0AEEF6E
:102B400015F02A0EDF6F010EE06F1D0EE16F080E0B
:102B5000E26FB7C0E3F0E46B8DEC21F0200E0001D2
:102B6000DF6F010EE06F4B0EE16F080EE26FB8C031
:102B7000E3F0E46B8DEC21F0000E036E010E026EAB
:102B8000000E056E000E046EAFEC1EF0340E036EE8
:102B9000010E046E39EC20F02A0E036E010E046E55
:102BA00039EC20F0200E036E010E046E39EC20F09B
:102BB00012000001B451016E026A036A046A100E29
:102BC000056E0E0E066E000E076E000E086EF1EC1E
:102BD00020F001C011F002C012F003C013F004C0D5
:102BE00014F00001B351016E026A036A046A3C0EDC
:102BF000056E000E066E000E076E000E086EF1ECFC
:102C000020F001501124156E02501220166E035050
:102C10001320176E04501420186E0001B2511524B1
:102C2000846F000E1620856F000E1720866F000E31
:102C30001820876FB90E0D24D96E000E0E20DA6EA3
:102C4000DF50116E1150016E026A036A046A100EA1
:102C5000056E0E0E066E000E076E000E086EF1EC8D
:102C600020F001C012F002C013F003C014F004C041
:102C700015F08C0E0D24D96E000E0E20DA6EDF508A
:102C8000166E1650016E026A036A046A3C0E056EE7
:102C9000000E066E000E076E000E086EF1EC20F0BE
:102CA00001501224176E02501320186E0350142086
:102CB000196E045015201A6E880E0D24D96E000E60
:102CC0000E20DA6EDF501B6E1B5017241C6E000E98
:102CD00018201D6E000E19201E6E000E1A201F6E89
:102CE000700E206E000E216ED8900D34D96E0E3409
:102CF000DA6ED890D936DA362050D9262150DA2229
:102D00001CC0DEFF1DC0DEFF1EC0DEFF1FC0DEFFD9
:102D1000B90E0F24D96E000E1020DA6EDF50116E3E
:102D20001150016E026A036A046A100E056E0E0EDF
:102D3000066E000E076E000E086EF1EC20F001C06A
:102D400012F002C013F003C014F004C015F08C0E92
:102D50000F24D96E000E1020DA6EDF50166E16505A
:102D6000016E026A036A046A3C0E056E000E066E6E
:102D7000000E076E000E086EF1EC20F001501224D8
:102D8000176E02501320186E03501420196E045051
:102D900015201A6E880E0F24D96E000E1020DA6EE0
:102DA000DF501B6E1B5017241C6E000E18201D6E6A
:102DB000000E19201E6E000E1A201F6E600E206E6F
:102DC000000E216ED8900D34D96E0E34DA6ED89084
:102DD000D936DA362050D9262150DA221CC0DEFF3F
:102DE0001DC0DEFF1EC0DEFF1FC0DEFFCBEC1DF0EE
:102DF000120041C0D9FF42C0DAFFDECFF6FFDDCFBF
:102E0000F7FF0800F550250AD8A409EF17F00BEFDB
:102E100017F0F5EF17F041C0D9FF42C0DAFFDE2A04
:102E2000000EDD22000E0001916F000E906F90C029
:102E30005EF09269936941C0D9FF42C0DAFFDECFEC
:102E400051F0DDCF52F051C0F6FF52C0F7FF08003D
:102E5000F550640AD8B42FEF17F031EF17F03FEFB9
:102E600017F051C0F6FF52C0F7FF0800F550690A8D
:102E7000D8A43DEF17F03FEF17F082EF17F043C0F3
:102E8000D9FF44C0DAFFDFCF45F0020EDE26DFCFE8
:102E900046F0000EDD2245C0D9FF46C0DAFFDECF86
:102EA00049F0DDCF4AF0000E4ABEFF0E4B6E4C6E6D
:102EB0004D6E4E6E4F6E506E010E5124456E000EDB
:102EC0005220466E41C0D9FF42C0DAFF45C0DEFF46
:102ED00046C0DDFF3FC01CF040C01DF049C01EF0E1
:102EE0004AC01FF04BC020F04CC021F04DC022F072
:102EF0004EC023F04FC024F050C025F06DEC13F00D
:102F000009EF18F051C0F6FF52C0F7FF0800F55066
:102F1000780AD8A48EEF17F090EF17F0ECEF17F0C7
:102F200043C0D9FF44C0DAFFDFCF45F0020EDE26F2
:102F3000DFCF46F0000EDD2245C0D9FF46C0DAFFE4
:102F4000DECF47F0DDCF48F047C049F048C04AF037
:102F50004B6A4C6A4D6A4E6A4F6A506A010E5124A0
:102F6000456E000E5220466E41C0D9FF42C0DAFFC6
:102F700045C0DEFF46C0DDFFD6EF17F03FC01CF0B6
:102F800040C01DF049C01EF04AC01FF04BC020F0E9
:102F90004CC021F04DC022F04EC023F04FC024F0B1
:102FA00050C025F0E4EC18F009EF18F051C0F6FF1E
:102FB00052C0F7FF0800F550456E466A4650000AB9
:102FC000D8B4E5EF17F0ECEF17F04550780AD8B415
:102FD000BEEF17F0ECEF17F041C0D9FF42C0DAFFA7
:102FE000DE2A000EDD2209EF18F041C0D9FF42C0F1
:102FF000DAFFDECFF6FFDDCFF7FF0800F550016EF8
:10300000026A3FC003F040C004F01AEC1FF0ECEF7E
:1030100017F01200096E0950D8B411EF18F013EF31
:1030200018F035EF18F004BE1AEF18F018EF18F08A
:1030300035EF18F001C005F002C006F003C007F03C
:1030400004C008F0051E061E071E081E052A000EF5
:1030500006220722082205C00BF006C00CF007C0AC
:103060000DF008C00EF03DEF18F001C00BF002C0EB
:103070000CF003C00DF004C00EF00150021003105C
:103080000410D8A446EF18F048EF18F052EF18F0EB
:10309000000E016E000E026E000E036E000E046E36
:1030A000E3EF18F0960E0A6E5CEF18F00A2AD8903B
:1030B0000E320D320C320B32000E0B14056E000E68
:1030C0000C14066E000E0D14076EFE0E0E14086E24
:1030D0000550061007100810D8A471EF18F073EF10
:1030E00018F056EF18F081EF18F00A2A010E0B269F
:1030F000000E0C220D220E22D8900E320D320C3210
:103100000B32000E0B14056E000E0C14066E000E32
:103110000D14076EFF0E0E14086E055006100710F2
:103120000810D8A496EF18F098EF18F075EF18F083
:10313000A0EF18F00A06D8900B360C360D360E3676
:103140000DBEA5EF18F0A7EF18F0AFEF18F0020EC4
:103150000A60ADEF18F0AFEF18F09AEF18F00AB070
:10316000B4EF18F0B6EF18F0B7EF18F00D9ED89046
:103170000A320AC005F0066A076A086A05C008F044
:10318000076A066A056A05500B1206500C120750B2
:103190000D1208500E120950D8B4D1EF18F0D3EF29
:1031A00018F0DBEF18F004BEDAEF18F0D8EF18F0E3
:1031B000DBEF18F00E8E0BC001F00CC002F00DC05A
:1031C00003F00EC004F01200000193BFF2EF18F0FC
:1031D000935106E19205D8B0F0EF18F0F2EF18F035
:1031E000F8EF18F0000E336E010E326EFCEF18F09F
:1031F00092C032F093C033F090C02EF091C02FF007
:103200001EC034F01FC035F020C036F021C037F0AA
:1032100022C038F023C039F024C03AF025C03BF07A
:10322000000E3D6E1F0E3C6E000E01011F6F74EF0D
:1032300019F03C06D8A03D0634500F0B3E6E090E27
:103240003E6425EF19F027EF19F02FEF19F0570E14
:103250003E24306E316A000E312235EF19F0300E07
:103260003E24306E316A000E312230C03EF0000E36
:103270003C24D96E010E3D20DA6E3EC0DFFF3206DF
:10328000D8A033062E06D8A02F0634C026F035C0AD
:1032900027F036C028F037C029F038C02AF039C0EE
:1032A0002BF03AC02CF03BC02DF0050E61EF19F069
:1032B000D8902D322C322B322A3229322832273222
:1032C0002632E82E58EF19F026C034F027C035F02A
:1032D00028C036F029C037F02AC038F02BC039F0AA
:1032E0002CC03AF02DC03BF03DBE80EF19F03D50B0
:1032F00009E1020E3C5CD8A080EF19F082EF19F0D2
:103300009EEF19F034503510361037103810391040
:103310003A103B10D8A48FEF19F091EF19F019EF84
:1033200019F033BE9EEF19F0335006E13204D8B0E5
:103330009CEF19F09EEF19F019EF19F01CC011F075
:103340001DC012F0000E3C24136E010E3D20146EC1
:103350002EC015F02FC016F078EC20F01200000EF1
:10336000126E10BEB8EF19F0B6EF19F0CAEF19F0EF
:10337000101E0F1E0E1E0D1E0C1E0B1E0A1E096CAB
:10338000000E0A220B220C220D220E220F221022E6
:10339000010E126E08BED1EF19F0CFEF19F0E3EF76
:1033A00019F0081E071E061E051E041E031E021E1F
:1033B000016C000E022203220422052206220722AB
:1033C0000822010E121A20EE13F0070EDE6AE8063C
:1033D000FDE209500A100B100C100D100E100F100A
:1033E0001010D8B4F6EF19F0F8EF19F04AEF1AF010
:1033F000010E116E06EF1AF0D89009360A360B3618
:103400000C360D360E360F361036112A10AE0BEF75
:103410001AF00DEF1AF0FCEF19F0D89013361436AD
:10342000153616361736183619361A360950015C15
:103430000A5002580B5003580C5004580D500558B0
:103440000E5006580F50075810500858D8A02BEFB0
:103450001AF02DEF1AF03EEF1AF00950015E0A50F3
:10346000025A0B50035A0C50045A0D50055A0E5074
:10347000065A0F50075A1050085A1380D89010322D
:103480000F320E320D320C320B320A320932112E4B
:103490000DEF1AF01250D8B450EF1AF052EF1AF0A4
:1034A00062EF1AF01A1E191E181E171E161E151E80
:1034B000141E136C000E1422152216221722182235
:1034C00019221A2213C001F014C002F015C003F033
:1034D00016C004F017C005F018C006F019C007F0B8
:1034E0001AC008F01200000E126E08BE7CEF1AF02F
:1034F0007AEF1AF08EEF1AF0081E071E061E051E40
:10350000041E031E021E016C000E0222032204226E
:103510000522062207220822010E126E10BE95EF28
:103520001AF093EF1AF0A5EF1AF0101E0F1E0E1EE0
:103530000D1E0C1E0B1E0A1E096C000E0A220B2209
:103540000C220D220E220F22102209500A100B10FD
:103550000C100D100E100F101010D8B4B2EF1AF09E
:10356000B4EF1AF0FCEF1AF0010E116EC2EF1AF070
:10357000D89009360A360B360C360D360E360F3615
:103580001036112A10AEC7EF1AF0C9EF1AF0B8EFD3
:103590001AF00950015C0A5002580B5003580C50A5
:1035A00004580D5005580E5006580F50075810502B
:1035B0000858D8A0DEEF1AF0E0EF1AF0F0EF1AF09A
:1035C0000950015E0A50025A0B50035A0C50045A1B
:1035D0000D50055A0E50065A0F50075A1050085AEF
:1035E000D89010320F320E320D320C320B320A32BA
:1035F0000932112EC9EF1AF01250D8B402EF1BF0A5
:1036000004EF1BF014EF1BF0081E071E061E051E1C
:10361000041E031E021E016C000E0222032204225D
:10362000052206220722082201C001F002C002F092
:1036300003C003F004C004F005C005F006C006F0A6
:1036400007C007F008C008F01200B90E0124D96EB7
:10365000000E0220DA6E01C003F002C004F0D89020
:1036600003360436D89003360436D8900336043631
:10367000C00E0324E16E000E0420E26EE750056EDA
:1036800001C006F002C007F0D89006360736D89081
:1036900006360736D89006360736BF0E0624E16E8A
:1036A000000E0720E26EE7500A0DF3500524F00FDC
:1036B000DF6E8C0E0124D96E000E0220DA6E01C07E
:1036C00003F002C004F0D89003360436D8900336D5
:1036D0000436D89003360436C30E0324E16E000E80
:1036E0000420E26EE750056E01C006F002C007F04C
:1036F000D89006360736D89006360736D890063664
:103700000736C20E0624E16E000E0720E26EE75077
:103710000A0DF3500524F00FDF6E880E0124D96ED8
:10372000000E0220DA6E01C003F002C004F0D8904F
:1037300003360436D89003360436D8900336043660
:10374000C60E0324E16E000E0420E26EE750056E03
:1037500001C006F002C007F0D89006360736D890B0
:1037600006360736D89006360736C50E0624E16EB3
:10377000000E0720E26EE7500A0DF3500524F00F0B
:10378000DF6E12000E6ED00EF7EC22F0030E1FEC6F
:1037900023F00EC001F0026A000E046E0A0E036EE2
:1037A0007FEC1FF001C00CF002C00DF00C3AF00EDF
:1037B0000C16F00E0C160EC001F0026A000E046E1C
:1037C0000A0E036EE1EC1FF001500F0B0C241FECEE
:1037D00023F009C001F0026A000E046E0A0E036EA7
:1037E0007FEC1FF001C00CF002C00DF00C3AF00E9F
:1037F0000C16F00E0C1609C001F0026A000E046EE1
:103800000A0E036EE1EC1FF001500F0B0C241FECAD
:1038100023F00AC001F0026A000E046E0A0E036E65
:103820007FEC1FF001C00CF002C00DF00C3AF00E5E
:103830000C16F00E0C160AC001F0026A000E046E9F
:103840000A0E036EE1EC1FF001500F0B0C241FEC6D
:1038500023F00BC001F0026A000E046E0A0E036E24
:103860007FEC1FF001C00CF002C00DF00C3AF00E1E
:103870000C16F00E0C160BC001F0026A000E046E5E
:103880000A0E036EE1EC1FF001500F0B0C241FEC2D
:1038900023F030EC23F01200033404340A6E0A5093
:1038A000D8A455EF1CF057EF1CF061EF1CF0000E90
:1038B000016E000E026E000E036E000E046ECEEF5F
:1038C0001CF001C005F002C006F003C007F004C000
:1038D00008F0200E71EF1CF0D89008320732063243
:1038E0000532E82E6CEF1CF00550096E038EFF0EBA
:1038F0000116FF0E0216FF0E0316000E0416960E9A
:103900000A5E0ABE88EF1CF086EF1CF09EEF1CF0EA
:103910000A50800A970FD8B090EF1CF092EF1CF07D
:1039200094EF1CF057EF1CF0D890043203320232AF
:1039300001320A3E94EF1CF0B6EF1CF01F0E0A6431
:10394000A4EF1CF0A6EF1CF0AEEF1CF057EF1CF03C
:10395000D89001360236033604360A060A50D8A437
:10396000B4EF1CF0B6EF1CF0A8EF1CF00950D8B46F
:10397000BCEF1CF0BEEF1CF0C6EF1CF0041E031ED3
:10398000021E016C000E02220322042201C001F07B
:1039900002C002F003C003F004C004F01200000EE5
:1039A0000114096E000E02140A6E800E03140B6ED1
:1039B0007F0E04140C6E09500A100B100C10D8A4C2
:1039C000E4EF1CF0E6EF1CF0EEEF1CF0000E016ED1
:1039D000000E026E000E036E000E046E000E051443
:1039E000096E000E06140A6E800E07140B6E7F0E11
:1039F00008140C6E09500A100B100C10D8A403EF19
:103A00001DF005EF1DF00DEF1DF0000E056E000E10
:103A1000066E000E076E000E086E04AE12EF1DF06B
:103A200014EF1DF01DEF1DF0016C021ED8B0022A2C
:103A3000031ED8B0032A800E045608AE22EF1DF0F4
:103A400024EF1DF02DEF1DF0056C061ED8B0062AE0
:103A5000071ED8B0072A800E0856000E011A000E65
:103A6000021A000E031A800E041A000E051A000E28
:103A7000061A000E071A800E081A0550015C06503F
:103A800002580750035808500458D8B04AEF1DF0A8
:103A90004CEF1DF04FEF1DF0D89050EF1DF0D88087
:103AA0001200AC98AB8E948C948E000E136E000EA8
:103AB000146E800E156E420E166E51C001F052C08B
:103AC00002F053C003F054C004F0010E0AEC18F0E9
:103AD00001C00FF002C010F003C011F004C012F0DA
:103AE00081EC0BF00FC02CF010C02DF011C02EF0A7
:103AF00012C02FF0000E286E240E296EF40E2A6ECE
:103B00004A0E2B6EA0EC11F028C041F029C042F003
:103B10002AC043F02BC044F0000E456E000E466EE6
:103B2000800E476EBF0E486EE5EC06F041C055F0C2
:103B300042C056F043C057F044C058F0000E016E2A
:103B4000000E026E7F0E036E430E046E55C005F02C
:103B500056C006F057C007F058C008F0CFEC1CF074
:103B6000D8B0B5EF1DF0B7EF1DF0B8EF1DF0AC8485
:103B700055C001F056C002F057C003F058C004F021
:103B80004CEC1CF00150AF6E200EAC6E900EAB6E84
:103B9000AB88AC8A120000017051845D7151855967
:103BA0007251865973518759D8A0D9EF1DF0DBEFB8
:103BB0001DF0DFEF1DF0000E816F010E806F605170
:103BC000845D615185596251865963518759D8B0D6
:103BD000ECEF1DF0EEEF1DF0FAEF1DF08005811106
:103BE000D8A4F5EF1DF0F7EF1DF0FAEF1DF0818C72
:103BF00007EF1EF09D51D8A400EF1EF002EF1EF05B
:103C000007EF1EF0819C000E816F000E806F7851CF
:103C1000845D795185597A5186597B518759D8A04D
:103C200014EF1EF016EF1EF01AEF1EF0000E836F59
:103C3000010E826F6851845D695185596A518659B8
:103C40006B518759D8B027EF1EF029EF1EF035EFE2
:103C50001EF082058311D8A430EF1EF032EF1EF063
:103C600035EF1EF0818E42EF1EF09D51D8A43BEF40
:103C70001EF03DEF1EF042EF1EF0819E000E836F9E
:103C8000000E826F12000D6E67EC23F0D00EF7EC81
:103C900022F0000E1FEC23F00DC001F0026A000EAE
:103CA000046E0A0E036E7FEC1FF001C00BF002C021
:103CB0000CF00B3AF00E0B16F00E0B160DC001F0C7
:103CC000026A000E046E0A0E036EE1EC1FF0015052
:103CD0000F0B0B241FEC23F009C001F0026A000E49
:103CE000046E0A0E036E7FEC1FF001C00BF002C0E1
:103CF0000CF00B3AF00E0B16F00E0B1609C001F08B
:103D0000026A000E046E0A0E036EE1EC1FF0015011
:103D10000F0B0B241FEC23F00AC001F0026A000E07
:103D2000046E0A0E036E7FEC1FF001C00BF002C0A0
:103D30000CF00B3AF00E0B16F00E0B160AC001F049
:103D4000026A000E046E0A0E036EE1EC1FF00150D1
:103D50000F0B0B241FEC23F030EC23F01200025069
:103D60000310D8A4B6EF1EF0B8EF1EF0E5EF1EF07A
:103D700005BEC6EF1EF0055007E1100E045CD8B07A
:103D8000C4EF1EF0C6EF1EF0E5EF1EF0800EACECA7
:103D900022F0000E086E000E076ED4EF1EF0140E17
:103DA000ACEC22F0074A082A0450075C0850800A4D
:103DB000066E0550800A0658D8A0E1EF1EF0E3EF2A
:103DC0001EF0CFEF1EF019EF1FF002040310D8A46D
:103DD000ECEF1EF0EEEF1EF019EF1FF005BEFCEF4A
:103DE0001EF0055007E1100E045CD8B0FAEF1EF08B
:103DF000FCEF1EF019EF1FF0C00EACEC22F0000E2D
:103E00000A6E000E096E0AEF1FF0140EACEC22F0E1
:103E1000094A0A2A0450095C0A50800A066E0550B5
:103E2000800A0658D8A017EF1FF019EF1FF005EF12
:103E30001FF0120003500410D8B421EF1FF023EF3D
:103E40001FF02CEF1FF003500410D8A42AEF1FF02E
:103E50002CEF1FF031EF1FF00150A9EC23F07EEFA3
:103E60001FF020EE09F00350D9260450DA22DE506C
:103E7000DE10D8B43EEF1FF040EF1FF05BEF1FF0F5
:103E800020EE09F00350D9260450DA2210EE03F098
:103E90000350E1260450E222DE50E65CE650800A40
:103EA000096EDE50800A0958D8B059EF1FF05BEF59
:103EB0001FF07EEF1FF020EE03F00350D9260450D0
:103EC000DA22DECF05F0DDCF06F003C0D9FF04C053
:103ED000DAFFDECF07F0DDCF08F005500724D96EFA
:103EE00006500820DA6E01C0DFFF20EE03F0035019
:103EF000D9260450DA22DE2A000EDD221200000E3E
:103F0000066E04BE88EF1FF086EF1FF08EEF1FF0E5
:103F1000036C041ED8B0042A010E066E02BE95EF93
:103F20001FF093EF1FF09BEF1FF0016C021ED8B043
:103F3000022A010E061A000E086E000E076E0350CC
:103F40000410D8B4A6EF1FF0A8EF1FF0D0EF1FF0B9
:103F5000010E056EB0EF1FF0D89003360436052A27
:103F600004AEB5EF1FF0B7EF1FF0ACEF1FF0D89025
:103F7000073608360350015C04500258D8A0C3EF3E
:103F80001FF0C5EF1FF0CAEF1FF00350015E045091
:103F9000025A0780D89004320332052EB7EF1FF083
:103FA0000650D8B4D6EF1FF0D8EF1FF0DCEF1FF0AB
:103FB000076C081ED8B0082A07C001F008C002F03C
:103FC0001200000E066E02BEEAEF1FF0E8EF1FF0CF
:103FD000F0EF1FF0016C021ED8B0022A010E066E2F
:103FE00004BEF7EF1FF0F5EF1FF0FBEF1FF0036CBF
:103FF000041ED8B0042A03500410D8B402EF20F0F5
:1040000004EF20F028EF20F0010E056E0CEF20F0F9
:10401000D89003360436052A04AE11EF20F013EFD2
:1040200020F008EF20F00350015C04500258D8A0A3
:104030001CEF20F01EEF20F022EF20F00350015E75
:104040000450025AD89004320332052E13EF20F0A8
:104050000650D8B42EEF20F030EF20F034EF20F0EF
:10406000016C021ED8B0022A01C001F002C002F0A9
:104070001200000E086E000E076E59EF20F0075078
:104080000324056E08500420066E05C0F6FF06C026
:10409000F7FFF86A070EF76403D00800F55005D063
:1040A000F6CFE1FFF7CFE2FFE75029EC22F0074A15
:1040B000082A07500324056E08500420066E05C028
:1040C000F6FF06C0F7FFF86A070EF76403D0080092
:1040D000F55005D0F6CFE1FFF7CFE2FFE75000093A
:1040E000D8A475EF20F077EF20F03FEF20F012001A
:1040F00016BE7DEF20F07FEF20F085EF20F015C099
:104100001AF016C01BF089EF20F0000E1B6E000E97
:104110001A6E000E196E000E186E9BEF20F0000E46
:10412000026E200E016E11C003F012C004F01AECF2
:104130001FF0184A192A1A50185C1950800A176E75
:104140001B50800A1758D8A0A8EF20F0AAEF20F043
:104150008FEF20F013C00AF014C00BF011C00CF068
:1041600012C00DF04CEC22F01200270E026EF50E7C
:10417000E82EFED7022EFCD700F0300E40EC23F0E4
:104180000D0E026EFC0EE82EFED7022EFCD7300E6E
:1041900040EC23F0420EE82EFED700D0300E40EC6B
:1041A00023F01A0EE82EFED700D0200E40EC23F0AC
:1041B0001A0EE82EFED700D0280EACEC22F00C0E22
:1041C000ACEC22F0010EACEC22F0060E026E300ECA
:1041D000E82EFED7022EFCD700D0060EACEC22F063
:1041E0001200000E096E000E0A6E000E0B6E000E1D
:1041F0000C6E01A0FEEF20F000EF21F008EF21F09F
:104200000550092606500A2207500B2208500C229E
:10421000D8900536063607360836D8900432033271
:10422000023201320150021003100410D8A41BEF17
:1042300021F01DEF21F0F9EF20F009C001F00AC0D4
:1042400002F00BC003F00CC004F01200D00EF7EC2B
:1042500022F0030E1FEC23F0D10EE0EC22F020EE52
:1042600003F00450D9260550DA22000E8EEC22F01D
:10427000DF6E20EE04F00450D9260550DA22000E3D
:104280008EEC22F0DF6E20EE05F00450D9260550AA
:10429000DA22000E8EEC22F0DF6E20EE06F00450E3
:1042A000D9260550DA22010E8EEC22F0DF6E30ECBA
:1042B00023F012000EBE66EF21F00E5009E1090E48
:1042C0000D5CD8A066EF21F068EF21F076EF21F0C9
:1042D000000E036E010E026E070E0B24046E000E1C
:1042E0000C20056EAFEC1EF082EF21F0000E036E85
:1042F000000E026E070E0B24046E000E0C20056EDD
:10430000AFEC1EF0200E29EC22F0820E0F6EDE0EB6
:10431000E82EFED70F2EFCD71200E30E0001E56F4A
:10432000000EE66FDFC0E7F0E0C0E8F0000EEB6FD4
:10433000000EEA6F000EF16F000EF06FE70E536E85
:10434000000E546EE1C055F0E2C056F0E50E576E17
:10435000000E586EDEEC21F00001EA51DF25D96E27
:10436000EB51E021DA6E000EDF6E1200D00EF7EC9A
:1043700022F0000E1FEC23F0D10EE0EC22F0000E34
:104380008EEC22F004C0D9FF05C0DAFFDF6E20EE0C
:1043900001F00450D9260550DA22000E8EEC22F0EE
:1043A000DF6E20EE02F00450D9260550DA22010E0D
:1043B0008EEC22F0DF6E30EC23F0120055C059F085
:1043C00056C05AF0F2EF21F053C03FF054C040F015
:1043D000590E416E000E426E57C043F058C044F073
:1043E000F9EC16F059C0F6FF5AC0F7FF0800F55077
:1043F0000009D8A4FEEF21F000EF22F0E4EF21F055
:10440000000E546E000E536E12001C0EF66E460E19
:10441000F76E000EF86E00EEBDF010EE22F009000F
:10442000F5CFEEFFE550E150FAE101EE00F0480E65
:10443000EE6AE806FDE100EE60F05D0EEE6AE80669
:10444000FDE15E6A5F905F92000EF86E000145EF3D
:1044500009F0026E8380C30E83160240E8423F0BD0
:104460003C0B83128382030E016E980EE82EFED75A
:10447000012EFCD78392C30E83160244E846FC0B40
:104480003C0B83128382030E016E980EE82EFED73A
:10449000012EFCD783921200000E106E000E0F6EDC
:1044A0005DEF22F00EC001F0026A0CC003F00DC0F7
:1044B00004F01AEC1FF00F4A102A0F500A24D96E8C
:1044C00010500B20DA6EDF500E6E0E50D8A46BEF3A
:1044D00022F06DEF22F052EF22F0120014BE7BEFBB
:1044E00022F0145006E11304D8B079EF22F07BEFEC
:1044F00022F089EF22F013C015F014C016F0151E3B
:10450000161E154A162A15C013F016C014F08DEFAA
:1045100022F013C013F014C014F01200016EC5860F
:10452000C7A095EF22F097EF22F090EF22F0C9CFCD
:1045300002F0036A0150D8A4A0EF22F0A2EF22F00B
:10454000A6EF22F07CEC23F0A8EF22F072EC23F02F
:1045500086EC23F002501200016E8390C30E831686
:104560000140E8423F0B3C0B8312838200D08392D0
:10457000C30E83160144E846FC0B3C0B8312838276
:1045800000D0839283801A0EE82EFED700D012004E
:10459000026E02C0A9FF01C0A8FFA69EA69CA68429
:1045A000F29E550EA76EAA0EA76EA682F28EA1A845
:1045B000DCEF22F0DEEF22F0D7EF22F0A19812001C
:1045C000026EC582C5B2E7EF22F0E9EF22F0E2EF1A
:1045D00022F09E96C7B6EFEF22F0F1EF22F0F3EF54
:1045E00022F0F6EF22F002501FEC23F01200026ED0
:1045F000C580C5B0FEEF22F000EF23F0F9EF22F006
:104600009E96C7B606EF23F008EF23F00AEF23F0DB
:104610000DEF23F002501FEC23F01200B2003030F7
:104620003A30303A303030303A30303A3030303062
:104630003A30303A303030303A30303A3030016E43
:1046400001C0C9FF86EC23F0C5AC29EF23F02BEFA6
:1046500023F02EEF23F0010E2FEF23F0020E1200B5
:10466000C584C5B436EF23F038EF23F031EF23F0E3
:10467000C7A83DEF23F03FEF23F038EF23F01200FF
:10468000016E8390C30E83160140E8423F0B3C0B42
:104690008312838200D083928380120006009EAA38
:1046A00054EF23F056EF23F059EF23F09E9AAECF4C
:1046B0009CF05F921100010EACEC22F0060E026E2F
:1046C000300EE82EFED7022EFCD700D012009380C9
:1046D0009382500EC76E280EC66E000EC56E130E66
:1046E000C86E1200C58AC588C5B879EF23F07BEF84
:1046F00023F074EF23F01200C59AC588C5B883EF84
:1047000023F085EF23F07EEF23F012009EA68BEFBF
:1047100023F08DEF23F086EF23F09E961200959400
:1047200095969598959A95929590B5EC20F01200F3
:10473000016E01C0A9FFA694A69EA680A8501200F3
:10474000938493869388938A1200F28EF28C9D8ACA
:044750001200120041
:020000040020DA
:08000000FFFFFFFFFFFFFFFF00
:020000040030CA
:0E000000000C1F1EFF8185FF0FC00FE00F4098
:00000001FF
